{
  "_format": "hh3-artifact-1",
  "contractName": "ArtifactCollection",
  "sourceName": "contracts/ArtifactCollection.sol",
  "abi": [
    {
      "inputs": [
        {
          "internalType": "address",
          "name": "owner_",
          "type": "address"
        }
      ],
      "stateMutability": "nonpayable",
      "type": "constructor"
    },
    {
      "inputs": [
        {
          "internalType": "address",
          "name": "sender",
          "type": "address"
        },
        {
          "internalType": "uint256",
          "name": "tokenId",
          "type": "uint256"
        },
        {
          "internalType": "address",
          "name": "owner",
          "type": "address"
        }
      ],
      "name": "ERC721IncorrectOwner",
      "type": "error"
    },
    {
      "inputs": [
        {
          "internalType": "address",
          "name": "operator",
          "type": "address"
        },
        {
          "internalType": "uint256",
          "name": "tokenId",
          "type": "uint256"
        }
      ],
      "name": "ERC721InsufficientApproval",
      "type": "error"
    },
    {
      "inputs": [
        {
          "internalType": "address",
          "name": "approver",
          "type": "address"
        }
      ],
      "name": "ERC721InvalidApprover",
      "type": "error"
    },
    {
      "inputs": [
        {
          "internalType": "address",
          "name": "operator",
          "type": "address"
        }
      ],
      "name": "ERC721InvalidOperator",
      "type": "error"
    },
    {
      "inputs": [
        {
          "internalType": "address",
          "name": "owner",
          "type": "address"
        }
      ],
      "name": "ERC721InvalidOwner",
      "type": "error"
    },
    {
      "inputs": [
        {
          "internalType": "address",
          "name": "receiver",
          "type": "address"
        }
      ],
      "name": "ERC721InvalidReceiver",
      "type": "error"
    },
    {
      "inputs": [
        {
          "internalType": "address",
          "name": "sender",
          "type": "address"
        }
      ],
      "name": "ERC721InvalidSender",
      "type": "error"
    },
    {
      "inputs": [
        {
          "internalType": "uint256",
          "name": "tokenId",
          "type": "uint256"
        }
      ],
      "name": "ERC721NonexistentToken",
      "type": "error"
    },
    {
      "inputs": [
        {
          "internalType": "address",
          "name": "owner",
          "type": "address"
        }
      ],
      "name": "OwnableInvalidOwner",
      "type": "error"
    },
    {
      "inputs": [
        {
          "internalType": "address",
          "name": "account",
          "type": "address"
        }
      ],
      "name": "OwnableUnauthorizedAccount",
      "type": "error"
    },
    {
      "anonymous": false,
      "inputs": [
        {
          "indexed": true,
          "internalType": "address",
          "name": "owner",
          "type": "address"
        },
        {
          "indexed": true,
          "internalType": "address",
          "name": "approved",
          "type": "address"
        },
        {
          "indexed": true,
          "internalType": "uint256",
          "name": "tokenId",
          "type": "uint256"
        }
      ],
      "name": "Approval",
      "type": "event"
    },
    {
      "anonymous": false,
      "inputs": [
        {
          "indexed": true,
          "internalType": "address",
          "name": "owner",
          "type": "address"
        },
        {
          "indexed": true,
          "internalType": "address",
          "name": "operator",
          "type": "address"
        },
        {
          "indexed": false,
          "internalType": "bool",
          "name": "approved",
          "type": "bool"
        }
      ],
      "name": "ApprovalForAll",
      "type": "event"
    },
    {
      "anonymous": false,
      "inputs": [
        {
          "indexed": true,
          "internalType": "address",
          "name": "to",
          "type": "address"
        },
        {
          "indexed": true,
          "internalType": "uint256",
          "name": "tokenId",
          "type": "uint256"
        },
        {
          "indexed": false,
          "internalType": "string",
          "name": "uri",
          "type": "string"
        }
      ],
      "name": "ArtifactMinted",
      "type": "event"
    },
    {
      "anonymous": false,
      "inputs": [
        {
          "indexed": false,
          "internalType": "uint256",
          "name": "_fromTokenId",
          "type": "uint256"
        },
        {
          "indexed": false,
          "internalType": "uint256",
          "name": "_toTokenId",
          "type": "uint256"
        }
      ],
      "name": "BatchMetadataUpdate",
      "type": "event"
    },
    {
      "anonymous": false,
      "inputs": [
        {
          "indexed": false,
          "internalType": "uint256",
          "name": "_tokenId",
          "type": "uint256"
        }
      ],
      "name": "MetadataUpdate",
      "type": "event"
    },
    {
      "anonymous": false,
      "inputs": [
        {
          "indexed": true,
          "internalType": "address",
          "name": "account",
          "type": "address"
        },
        {
          "indexed": false,
          "internalType": "bool",
          "name": "allowed",
          "type": "bool"
        }
      ],
      "name": "MinterUpdated",
      "type": "event"
    },
    {
      "anonymous": false,
      "inputs": [
        {
          "indexed": true,
          "internalType": "address",
          "name": "previousOwner",
          "type": "address"
        },
        {
          "indexed": true,
          "internalType": "address",
          "name": "newOwner",
          "type": "address"
        }
      ],
      "name": "OwnershipTransferred",
      "type": "event"
    },
    {
      "anonymous": false,
      "inputs": [
        {
          "indexed": true,
          "internalType": "address",
          "name": "from",
          "type": "address"
        },
        {
          "indexed": true,
          "internalType": "address",
          "name": "to",
          "type": "address"
        },
        {
          "indexed": true,
          "internalType": "uint256",
          "name": "tokenId",
          "type": "uint256"
        }
      ],
      "name": "Transfer",
      "type": "event"
    },
    {
      "inputs": [
        {
          "internalType": "address",
          "name": "to",
          "type": "address"
        },
        {
          "internalType": "uint256",
          "name": "tokenId",
          "type": "uint256"
        }
      ],
      "name": "approve",
      "outputs": [],
      "stateMutability": "nonpayable",
      "type": "function"
    },
    {
      "inputs": [
        {
          "internalType": "address",
          "name": "owner",
          "type": "address"
        }
      ],
      "name": "balanceOf",
      "outputs": [
        {
          "internalType": "uint256",
          "name": "",
          "type": "uint256"
        }
      ],
      "stateMutability": "view",
      "type": "function"
    },
    {
      "inputs": [
        {
          "internalType": "uint256",
          "name": "tokenId",
          "type": "uint256"
        }
      ],
      "name": "getApproved",
      "outputs": [
        {
          "internalType": "address",
          "name": "",
          "type": "address"
        }
      ],
      "stateMutability": "view",
      "type": "function"
    },
    {
      "inputs": [
        {
          "internalType": "address",
          "name": "owner",
          "type": "address"
        },
        {
          "internalType": "address",
          "name": "operator",
          "type": "address"
        }
      ],
      "name": "isApprovedForAll",
      "outputs": [
        {
          "internalType": "bool",
          "name": "",
          "type": "bool"
        }
      ],
      "stateMutability": "view",
      "type": "function"
    },
    {
      "inputs": [
        {
          "internalType": "address",
          "name": "",
          "type": "address"
        }
      ],
      "name": "isMinter",
      "outputs": [
        {
          "internalType": "bool",
          "name": "",
          "type": "bool"
        }
      ],
      "stateMutability": "view",
      "type": "function"
    },
    {
      "inputs": [
        {
          "internalType": "address",
          "name": "to",
          "type": "address"
        },
        {
          "internalType": "string",
          "name": "uri",
          "type": "string"
        }
      ],
      "name": "mintArtifact",
      "outputs": [
        {
          "internalType": "uint256",
          "name": "",
          "type": "uint256"
        }
      ],
      "stateMutability": "nonpayable",
      "type": "function"
    },
    {
      "inputs": [],
      "name": "name",
      "outputs": [
        {
          "internalType": "string",
          "name": "",
          "type": "string"
        }
      ],
      "stateMutability": "view",
      "type": "function"
    },
    {
      "inputs": [],
      "name": "nextTokenId",
      "outputs": [
        {
          "internalType": "uint256",
          "name": "",
          "type": "uint256"
        }
      ],
      "stateMutability": "view",
      "type": "function"
    },
    {
      "inputs": [],
      "name": "owner",
      "outputs": [
        {
          "internalType": "address",
          "name": "",
          "type": "address"
        }
      ],
      "stateMutability": "view",
      "type": "function"
    },
    {
      "inputs": [
        {
          "internalType": "uint256",
          "name": "tokenId",
          "type": "uint256"
        }
      ],
      "name": "ownerOf",
      "outputs": [
        {
          "internalType": "address",
          "name": "",
          "type": "address"
        }
      ],
      "stateMutability": "view",
      "type": "function"
    },
    {
      "inputs": [],
      "name": "renounceOwnership",
      "outputs": [],
      "stateMutability": "nonpayable",
      "type": "function"
    },
    {
      "inputs": [
        {
          "internalType": "address",
          "name": "from",
          "type": "address"
        },
        {
          "internalType": "address",
          "name": "to",
          "type": "address"
        },
        {
          "internalType": "uint256",
          "name": "tokenId",
          "type": "uint256"
        }
      ],
      "name": "safeTransferFrom",
      "outputs": [],
      "stateMutability": "nonpayable",
      "type": "function"
    },
    {
      "inputs": [
        {
          "internalType": "address",
          "name": "from",
          "type": "address"
        },
        {
          "internalType": "address",
          "name": "to",
          "type": "address"
        },
        {
          "internalType": "uint256",
          "name": "tokenId",
          "type": "uint256"
        },
        {
          "internalType": "bytes",
          "name": "data",
          "type": "bytes"
        }
      ],
      "name": "safeTransferFrom",
      "outputs": [],
      "stateMutability": "nonpayable",
      "type": "function"
    },
    {
      "inputs": [
        {
          "internalType": "address",
          "name": "operator",
          "type": "address"
        },
        {
          "internalType": "bool",
          "name": "approved",
          "type": "bool"
        }
      ],
      "name": "setApprovalForAll",
      "outputs": [],
      "stateMutability": "nonpayable",
      "type": "function"
    },
    {
      "inputs": [
        {
          "internalType": "address",
          "name": "account",
          "type": "address"
        },
        {
          "internalType": "bool",
          "name": "allowed",
          "type": "bool"
        }
      ],
      "name": "setMinter",
      "outputs": [],
      "stateMutability": "nonpayable",
      "type": "function"
    },
    {
      "inputs": [
        {
          "internalType": "bytes4",
          "name": "interfaceId",
          "type": "bytes4"
        }
      ],
      "name": "supportsInterface",
      "outputs": [
        {
          "internalType": "bool",
          "name": "",
          "type": "bool"
        }
      ],
      "stateMutability": "view",
      "type": "function"
    },
    {
      "inputs": [],
      "name": "symbol",
      "outputs": [
        {
          "internalType": "string",
          "name": "",
          "type": "string"
        }
      ],
      "stateMutability": "view",
      "type": "function"
    },
    {
      "inputs": [
        {
          "internalType": "uint256",
          "name": "tokenId",
          "type": "uint256"
        }
      ],
      "name": "tokenURI",
      "outputs": [
        {
          "internalType": "string",
          "name": "",
          "type": "string"
        }
      ],
      "stateMutability": "view",
      "type": "function"
    },
    {
      "inputs": [
        {
          "internalType": "address",
          "name": "from",
          "type": "address"
        },
        {
          "internalType": "address",
          "name": "to",
          "type": "address"
        },
        {
          "internalType": "uint256",
          "name": "tokenId",
          "type": "uint256"
        }
      ],
      "name": "transferFrom",
      "outputs": [],
      "stateMutability": "nonpayable",
      "type": "function"
    },
    {
      "inputs": [
        {
          "internalType": "address",
          "name": "newOwner",
          "type": "address"
        }
      ],
      "name": "transferOwnership",
      "outputs": [],
      "stateMutability": "nonpayable",
      "type": "function"
    }
  ],
  "bytecode": "0x6080346200037157601f1990601f906001600160401b03906200169d38819003848101861683018481118482101762000293578392829160405283396020928391810103126200037157516001600160a01b0393848216939184900362000371576200006a62000375565b926008845267105c9d1a599858dd60c21b818501526200008962000375565b96600888526710549512519050d560c21b82890152845184811162000293575f546001968782811c9216801562000366575b858310146200027457818684931162000313575b508490868311600114620002b3575f92620002a7575b50505f19600383901b1c191690861b175f555b8751938411620002935784548581811c9116801562000288575b8382101462000274578381116200022c575b5081928411600114620001c857505081929394955f92620001bc575b50505f19600383901b1c191690821b1790555b8015620001a457600780546001600160a01b03198116831790915560405192167f8be0079c531659141344cd1fd0a4f28419497f9722a3daafe3b4186f6b6457e05f80a36113079081620003968239f35b604051631e4fbdf760e01b81525f6004820152602490fd5b015190505f8062000140565b5f858152828120918516989193925b89821062000214575050838596979810620001fb575b505050811b01905562000153565b01515f1960f88460031b161c191690555f8080620001ed565b808785968294968601518155019501930190620001d7565b855f52825f208480870160051c8201928588106200026a575b0160051c019086905b8281106200025e57505062000124565b5f81550186906200024e565b9250819262000245565b634e487b7160e01b5f52602260045260245ffd5b90607f169062000112565b634e487b7160e01b5f52604160045260245ffd5b015190505f80620000e5565b9084899416915f8052865f20925f5b88828210620002fc5750508411620002e3575b505050811b015f55620000f8565b01515f1960f88460031b161c191690555f8080620002d5565b8385015186558c97909501949384019301620002c2565b9091505f8052845f208680850160051c8201928786106200035c575b918a91869594930160051c01915b8281106200034d575050620000cf565b5f81558594508a91016200033d565b925081926200032f565b91607f1691620000bb565b5f80fd5b60408051919082016001600160401b03811183821017620002935760405256fe608060409080825260049081361015610016575f80fd5b5f3560e01c90816301ffc9a714610d5d5750806306fdde0314610cb0578063081812fc14610c77578063095ea7b314610b9b57806323b872dd14610b8457806342842e0e14610b565780636352211e14610b2657806370a0823114610ad1578063715018a614610a7657806375794a3c14610a585780638da5cb5b14610a3057806395d89b411461094d578063a22cb465146108bb578063aa271e1a1461087f578063b3a489ac1461039d578063b88d4fde14610330578063c87b56dd1461023e578063cf456ae7146101d6578063e985e9c5146101885763f2fde38b146100fc575f80fd5b3461018457602036600319011261018457610115610e1f565b9061011e61115b565b6001600160a01b0391821692831561016e575050600754826001600160601b0360a01b821617600755167f8be0079c531659141344cd1fd0a4f28419497f9722a3daafe3b4186f6b6457e05f80a3005b905f6024925191631e4fbdf760e01b8352820152fd5b5f80fd5b82346101845780600319360112610184576020906101a4610e1f565b6101ac610e35565b9060018060a01b038091165f5260058452825f2091165f52825260ff815f20541690519015158152f35b8234610184577fb21afb9ce9be0a676f8f317ff0ca072fb89a4f8ce2d1b6fe80f8755c14f1cb19602061020836610e80565b9061021161115b565b6001600160a01b03165f81815260098452859020805460ff191660ff8415151617905593519015158152a2005b50346101845760209081600319360112610184573561025c81611121565b505f5260068152815f2091805180935f90805461027881610f53565b91828552600191876001821691825f146103095750506001146102c9575b5050506102c592916102a9910385610edf565b5f81516102b581610eaf565b5251928284938452830190610de1565b0390f35b8693505f92919252825f20915f925b8284106102f157505050820101816102a96102c5610296565b8054848a0186015288955087949093019281016102d8565b60ff19168782015293151560051b860190930193508492506102a991506102c59050610296565b50346101845760803660031901126101845761034a610e1f565b610352610e35565b6044359060643567ffffffffffffffff811161018457366023820112156101845761039b9481602461038993369301359101610f1d565b92610395838383610f8b565b33611187565b005b5090346101845780600319360112610184576103b7610e1f565b90602480359267ffffffffffffffff93848111610184573660238201121561018457808601359085821161018457838101908483369201011161018457335f526020966009885260ff865f205416801561086b575b1561082957600854966001808901808a1161081757600855875161042f81610eaf565b5f81526001600160a01b0387811697908815610802578b898e60028e94845f52818352855f2054169182151595866107d1575b845f52600382525f20898154019055845f52528d5f20826001600160601b0360a01b8254161790557fddf252ad1be2c89b69c2b068fc378daa952ba7f163c4a11628f55a4df523b3ef5f80a46107bc573b61069a575b506104c4368686610f1d565b96895f5260068b52885f2093885193841161068957505091889594939188936104ed8354610f53565b601f811161062d575b508b98601f83116001146105a35782917fda6dde4b28daad6226d9db9a0758d1aa1873aa90ff7d559f8342dc1a689eae4e98999a83925f94610598575b50501b915f199060031b1c19161790555b7ff8e1a15aba9398e019f0b49df1a4fde98ee17ae345cb5f6b5e2c27f5033e8ce7898351888152a18282519384928b8452818c850152848401375f828201840152601f01601f19168101030190a351908152f35b015192505f80610533565b5f8481528d8120601f1985169b939493909290918f5b8d8210610612575050837fda6dde4b28daad6226d9db9a0758d1aa1873aa90ff7d559f8342dc1a689eae4e9a9b9c106105fa575b505050811b019055610544565b01515f1960f88460031b161c191690555f80806105ed565b8284015185558f9c508e99509386019392830192018f6105b9565b919395969750918094505f528a5f20601f840160051c8101918c851061067f575b918a959391601f8d9a999896940160051c01905b81811061066f57506104f6565b5f81558c99508b96508201610662565b909150819061064e565b604190634e487b7160e01b5f52525ffd5b92899594938b829b895f8c9f9b9d9c81906106e18f5197889687958694630a85bd0160e11b9c8d875233908701528501526044840152608060648401526084830190610de1565b03925af15f918161077c575b5061074857505050505050503d5f14610740573d9061070b82610f01565b9161071884519384610edf565b82523d5f8284013e5b8151918261073d575050505191633250574960e11b8352820152fd5b01fd5b606090610721565b63ffffffff60e09c999a989c9b9596979b1b1603610766575f6104b8565b8751633250574960e11b81528084018790528790fd5b9091508881813d83116107b5575b6107948183610edf565b8101031261018457516001600160e01b03198116810361018457905f6106ed565b503d61078a565b89516339e3563760e11b81525f818701528990fd5b5f86815260046020526040812080546001600160a01b03191690558481526003835281902080545f19019055610462565b8a51633250574960e11b81525f818801528a90fd5b87601185634e487b7160e01b5f52525ffd5b855162461bcd60e51b8152908101889052601e818601527f4172746966616374436f6c6c656374696f6e3a206e6f74206d696e74657200006044820152606490fd5b506007546001600160a01b0316331461040c565b8234610184576020366003190112610184576020906001600160a01b036108a4610e1f565b165f526009825260ff815f20541690519015158152f35b509034610184576108cb36610e80565b6001600160a01b039091169290919083156109385750335f526005602052805f20835f5260205261090a82825f209060ff801983541691151516179055565b5190151581527f17307eab39ab6107e8899845ad3d59bd9653f200f220920489ca2b5937696c3160203392a3005b836024925191630b61174360e31b8352820152fd5b8234610184575f366003190112610184578051905f90826001926001549361097485610f53565b90818452602095866001821691825f14610a0e5750506001146109b3575b50506102c592916109a4910385610edf565b51928284938452830190610de1565b9085925060015f527fb10e2d527612073b26eecdfd717e6a320cf44b4afac2b0732d9fcbe2b7fa0cf6915f925b8284106109f657505050820101816109a4610992565b8054848a0186015288955087949093019281016109e0565b60ff19168682015292151560051b850190920192508391506109a49050610992565b8234610184575f3660031901126101845760075490516001600160a01b039091168152602090f35b8234610184575f366003190112610184576020906008549051908152f35b34610184575f36600319011261018457610a8e61115b565b600780546001600160a01b031981169091555f906001600160a01b03167f8be0079c531659141344cd1fd0a4f28419497f9722a3daafe3b4186f6b6457e08280a3005b509034610184576020366003190112610184576001600160a01b03610af4610e1f565b168015610b1057602092505f5260038252805f20549051908152f35b81516322718ad960e21b81525f81850152602490fd5b50903461018457602036600319011261018457610b4560209235611121565b90516001600160a01b039091168152f35b82346101845761039b90610b6936610e4b565b91925192610b7684610eaf565b5f8452610395838383610f8b565b346101845761039b610b9536610e4b565b91610f8b565b509034610184578060031936011261018457610bb5610e1f565b91602435610bc281611121565b33151580610c64575b80610c3d575b610c27576001600160a01b039485169482918691167f8c5be1e5ebec7d5bd14f71427d1e84f3dd0314c0f7b2291e5b200ac8c7c3b9255f80a45f526020525f20906001600160601b0360a01b8254161790555f80f35b835163a9fbf51f60e01b81523381850152602490fd5b5060018060a01b0381165f526005602052835f20335f5260205260ff845f20541615610bd1565b506001600160a01b038116331415610bcb565b509034610184576020366003190112610184578160209235610c9881611121565b505f52825260018060a01b03815f2054169051908152f35b8234610184575f366003190112610184578051905f90825f5492610cd384610f53565b808352602094600190866001821691825f14610a0e575050600114610d045750506102c592916109a4910385610edf565b5f80805286935091907f290decd9548b62a8d60345a988386fc84ba6bc95484008f6362f93160ef3e5635b828410610d4557505050820101816109a4610992565b8054848a018601528895508794909301928101610d2f565b823461018457602036600319011261018457359063ffffffff60e01b821680920361018457602091632483248360e11b8114908115610d9e575b5015158152f35b6380ac58cd60e01b811491508115610dd0575b8115610dbf575b5083610d97565b6301ffc9a760e01b14905083610db8565b635b5e139f60e01b81149150610db1565b91908251928382525f5b848110610e0b575050825f602080949584010152601f8019910116010190565b602081830181015184830182015201610deb565b600435906001600160a01b038216820361018457565b602435906001600160a01b038216820361018457565b6060906003190112610184576001600160a01b0390600435828116810361018457916024359081168103610184579060443590565b6040906003190112610184576004356001600160a01b0381168103610184579060243580151581036101845790565b6020810190811067ffffffffffffffff821117610ecb57604052565b634e487b7160e01b5f52604160045260245ffd5b90601f8019910116810190811067ffffffffffffffff821117610ecb57604052565b67ffffffffffffffff8111610ecb57601f01601f191660200190565b929192610f2982610f01565b91610f376040519384610edf565b829481845281830111610184578281602093845f960137010152565b90600182811c92168015610f81575b6020831014610f6d57565b634e487b7160e01b5f52602260045260245ffd5b91607f1691610f62565b6001600160a01b03918216929091831561110957815f52602092600284528260409583875f2054169533151580611077575b5060029087611046575b825f5260038152885f2060018154019055835f5252865f20816001600160601b0360a01b825416179055857fddf252ad1be2c89b69c2b068fc378daa952ba7f163c4a11628f55a4df523b3ef5f80a416928383036110255750505050565b6064945051926364283d7b60e01b8452600484015260248301526044820152fd5b5f84815260046020526040812080546001600160a01b03191690558881526003825289902080545f19019055610fc7565b91925090806110c8575b1561108f579084915f610fbd565b8685876110ac576024915190637e27328960e01b82526004820152fd5b604491519063177e802f60e01b82523360048301526024820152fd5b5033861480156110ed575b806110815750845f52600481523384885f20541614611081565b50855f5260058152865f20335f52815260ff875f2054166110d3565b604051633250574960e11b81525f6004820152602490fd5b5f818152600260205260409020546001600160a01b0316908115611143575090565b60249060405190637e27328960e01b82526004820152fd5b6007546001600160a01b0316330361116f57565b60405163118cdaa760e01b8152336004820152602490fd5b9293909193843b61119a575b5050505050565b604051630a85bd0160e11b8082526001600160a01b0395861660048301529385166024820152604481019190915260806064820152602095949093169392908590829081906111ed906084830190610de1565b03815f885af15f9181611291575b5061125a575050503d5f14611252573d9161121583610f01565b926112236040519485610edf565b83523d5f8285013e5b8251928361124d57604051633250574960e11b815260048101849052602490fd5b019050fd5b60609161122c565b9193506001600160e01b03199091160361127957505f80808080611193565b60249060405190633250574960e11b82526004820152fd5b9091508581813d83116112ca575b6112a98183610edf565b8101031261018457516001600160e01b03198116810361018457905f6111fb565b503d61129f56fea26469706673582212205270ef82e8c7ccf552260d7915e2b346ec027c974d0e525cdf5bb385c439865d64736f6c63430008180033",
  "linkReferences": {},
  "deployedLinkReferences": {},
  "immutableReferences": {},
  "inputSourceName": "project/contracts/ArtifactCollection.sol",
  "buildInfoId": "solc-0_8_24-d81eb4e5e8c56c3af94faa4f155b7b72e7c87331"
}