{
  "_format": "hh3-artifact-1",
  "contractName": "QuestManager",
  "sourceName": "contracts/QuestManager.sol",
  "abi": [
    {
      "inputs": [
        {
          "internalType": "address",
          "name": "owner_",
          "type": "address"
        },
        {
          "internalType": "address",
          "name": "magicToken",
          "type": "address"
        },
        {
          "internalType": "address",
          "name": "attestor_",
          "type": "address"
        }
      ],
      "stateMutability": "nonpayable",
      "type": "constructor"
    },
    {
      "inputs": [],
      "name": "ECDSAInvalidSignature",
      "type": "error"
    },
    {
      "inputs": [
        {
          "internalType": "uint256",
          "name": "length",
          "type": "uint256"
        }
      ],
      "name": "ECDSAInvalidSignatureLength",
      "type": "error"
    },
    {
      "inputs": [
        {
          "internalType": "bytes32",
          "name": "s",
          "type": "bytes32"
        }
      ],
      "name": "ECDSAInvalidSignatureS",
      "type": "error"
    },
    {
      "inputs": [
        {
          "internalType": "address",
          "name": "owner",
          "type": "address"
        }
      ],
      "name": "OwnableInvalidOwner",
      "type": "error"
    },
    {
      "inputs": [
        {
          "internalType": "address",
          "name": "account",
          "type": "address"
        }
      ],
      "name": "OwnableUnauthorizedAccount",
      "type": "error"
    },
    {
      "inputs": [],
      "name": "ReentrancyGuardReentrantCall",
      "type": "error"
    },
    {
      "anonymous": false,
      "inputs": [
        {
          "indexed": true,
          "internalType": "address",
          "name": "attestor",
          "type": "address"
        }
      ],
      "name": "AttestorUpdated",
      "type": "event"
    },
    {
      "anonymous": false,
      "inputs": [
        {
          "indexed": true,
          "internalType": "address",
          "name": "previousOwner",
          "type": "address"
        },
        {
          "indexed": true,
          "internalType": "address",
          "name": "newOwner",
          "type": "address"
        }
      ],
      "name": "OwnershipTransferred",
      "type": "event"
    },
    {
      "anonymous": false,
      "inputs": [
        {
          "indexed": true,
          "internalType": "address",
          "name": "player",
          "type": "address"
        },
        {
          "indexed": true,
          "internalType": "uint256",
          "name": "questId",
          "type": "uint256"
        },
        {
          "indexed": false,
          "internalType": "uint256",
          "name": "amount",
          "type": "uint256"
        },
        {
          "indexed": false,
          "internalType": "bytes32",
          "name": "message",
          "type": "bytes32"
        }
      ],
      "name": "RewardClaimed",
      "type": "event"
    },
    {
      "inputs": [],
      "name": "attestor",
      "outputs": [
        {
          "internalType": "address",
          "name": "",
          "type": "address"
        }
      ],
      "stateMutability": "view",
      "type": "function"
    },
    {
      "inputs": [
        {
          "internalType": "address",
          "name": "player",
          "type": "address"
        },
        {
          "internalType": "uint256",
          "name": "questId",
          "type": "uint256"
        },
        {
          "internalType": "uint256",
          "name": "amount",
          "type": "uint256"
        },
        {
          "internalType": "bytes",
          "name": "signature",
          "type": "bytes"
        }
      ],
      "name": "claimReward",
      "outputs": [],
      "stateMutability": "nonpayable",
      "type": "function"
    },
    {
      "inputs": [],
      "name": "magic",
      "outputs": [
        {
          "internalType": "contract IMagicToken",
          "name": "",
          "type": "address"
        }
      ],
      "stateMutability": "view",
      "type": "function"
    },
    {
      "inputs": [],
      "name": "owner",
      "outputs": [
        {
          "internalType": "address",
          "name": "",
          "type": "address"
        }
      ],
      "stateMutability": "view",
      "type": "function"
    },
    {
      "inputs": [],
      "name": "renounceOwnership",
      "outputs": [],
      "stateMutability": "nonpayable",
      "type": "function"
    },
    {
      "inputs": [
        {
          "internalType": "address",
          "name": "newAttestor",
          "type": "address"
        }
      ],
      "name": "setAttestor",
      "outputs": [],
      "stateMutability": "nonpayable",
      "type": "function"
    },
    {
      "inputs": [
        {
          "internalType": "address",
          "name": "newOwner",
          "type": "address"
        }
      ],
      "name": "transferOwnership",
      "outputs": [],
      "stateMutability": "nonpayable",
      "type": "function"
    },
    {
      "inputs": [
        {
          "internalType": "bytes32",
          "name": "",
          "type": "bytes32"
        }
      ],
      "name": "usedMessages",
      "outputs": [
        {
          "internalType": "bool",
          "name": "",
          "type": "bool"
        }
      ],
      "stateMutability": "view",
      "type": "function"
    }
  ],
  "bytecode": "0x6080346100ec57601f61085938819003918201601f19168301916001600160401b038311848410176100f0578084926060946040528339810103126100ec5761004781610104565b61005f604061005860208501610104565b9301610104565b6001600160a01b03918216919082156100d457815f549460018060a01b03199480868816175f558260405197167f8be0079c531659141344cd1fd0a4f28419497f9722a3daafe3b4186f6b6457e05f80a360018055168360025416176002551690600354161760035561074090816101198239f35b604051631e4fbdf760e01b81525f6004820152602490fd5b5f80fd5b634e487b7160e01b5f52604160045260245ffd5b51906001600160a01b03821682036100ec5756fe608060409080825260049182361015610016575f80fd5b5f925f3560e01c9283630d8546461461055c575082635a0284001461053157826361519f4214610227578263715018a6146101ce5782638da5cb5b146101a6578263cada25c214610179578263f2fde38b146100e657505063f5770b1f1461007c575f80fd5b346100e35760203660031901126100e35761009561057f565b61009d610595565b600380546001600160a01b0319166001600160a01b039290921691821790557fd5d99e381ae1a48ea1fe28325462987c8204869c61d1468101524f97d94400118280a280f35b80fd5b909150346101755760203660031901126101755761010261057f565b9061010b610595565b6001600160a01b0391821692831561015f5750505f54826bffffffffffffffffffffffff60a01b8216175f55167f8be0079c531659141344cd1fd0a4f28419497f9722a3daafe3b4186f6b6457e05f80a380f35b51631e4fbdf760e01b8152908101849052602490fd5b8280fd5b8382346101a257816003193601126101a25760035490516001600160a01b039091168152602090f35b5080fd5b8382346101a257816003193601126101a257905490516001600160a01b039091168152602090f35b83346100e357806003193601126100e3576101e7610595565b5f80546001600160a01b0319811682556001600160a01b03167f8be0079c531659141344cd1fd0a4f28419497f9722a3daafe3b4186f6b6457e08280a380f35b83903461044d57608036600319011261044d5761024261057f565b602493843592604435906064359067ffffffffffffffff9081831161044d573660238401121561044d578281013582811161044d57368a828601011161044d5760026001541461052257600260015584156104f25790899392918651906020948583019160018060a01b0393848c169b6bffffffffffffffffffffffff199060601b1684528c60348201528960548201523060601b60748201524660888201526088815260c0810193818510888611176104e057848c5281519020987f19457468657265756d205369676e6564204d6573736167653a0a3332000000005f5289601c52603c5f209360c0601f19603f81601f88011601168401018681108a8211176104ce579361036b9593818f9460e0946103749a985f975282895201848301370101526105c0565b909291926105fa565b81806003541691160361048c57845f5281845260ff875f20541661045157845f52818452865f20600160ff198254161790556002541691823b1561044d575f8b60448a838a978c5198899586946340c10f1960e01b86528a8601528401525af1801561044357610415575b50508451938452508201527f1ab02525bc421da50dabc2743019f8a7cb75b9389f8cb2b855c71ce053f0f1b79190a36001805580f35b90918093995011610431575083529495505f94868880806103df565b60418991634e487b7160e01b5f52525ffd5b87513d5f823e3d90fd5b5f80fd5b865162461bcd60e51b81528083018590526016818d01527514995dd85c9908185b1c9958591e4818db185a5b595960521b6044820152606490fd5b865162461bcd60e51b8152808301859052601a818d01527f496e76616c6964206174746573746f72207369676e61747572650000000000006044820152606490fd5b8260418a634e487b7160e01b5f52525ffd5b89604188634e487b7160e01b5f52525ffd5b855162461bcd60e51b8152602081840152600b818c01526a16995c9bc8185b5bdd5b9d60aa1b6044820152606490fd5b508451633ee5aeb560e01b8152fd5b903461044d57602036600319011261044d5781602092355f52825260ff815f20541690519015158152f35b3461044d575f36600319011261044d576002546001600160a01b03168152602090f35b600435906001600160a01b038216820361044d57565b5f546001600160a01b031633036105a857565b60405163118cdaa760e01b8152336004820152602490fd5b81519190604183036105f0576105e99250602082015190606060408401519301515f1a9061067d565b9192909190565b50505f9160029190565b6004811015610669578061060c575050565b600181036106265760405163f645eedf60e01b8152600490fd5b600281036106475760405163fce698f760e01b815260048101839052602490fd5b6003146106515750565b602490604051906335e2f38360e21b82526004820152fd5b634e487b7160e01b5f52602160045260245ffd5b91907f7fffffffffffffffffffffffffffffff5d576e7357a4501ddfe92f46681b20a084116106ff579160209360809260ff5f9560405194855216868401526040830152606082015282805260015afa156106f4575f516001600160a01b038116156106ea57905f905f90565b505f906001905f90565b6040513d5f823e3d90fd5b5050505f916003919056fea2646970667358221220fa2ef969a822167ff93f0b91d749d10c776de6702d412964bd171b4cab2473c964736f6c63430008180033",
  "linkReferences": {},
  "deployedLinkReferences": {},
  "immutableReferences": {},
  "inputSourceName": "project/contracts/QuestManager.sol",
  "buildInfoId": "solc-0_8_24-df50c3518499efe85591d8f41d05fd012dd4f4b8"
}