{
  "_format": "hh3-artifact-1",
  "contractName": "MagicToken",
  "sourceName": "contracts/MagicToken.sol",
  "abi": [
    {
      "inputs": [
        {
          "internalType": "address",
          "name": "owner_",
          "type": "address"
        }
      ],
      "stateMutability": "nonpayable",
      "type": "constructor"
    },
    {
      "inputs": [
        {
          "internalType": "address",
          "name": "spender",
          "type": "address"
        },
        {
          "internalType": "uint256",
          "name": "allowance",
          "type": "uint256"
        },
        {
          "internalType": "uint256",
          "name": "needed",
          "type": "uint256"
        }
      ],
      "name": "ERC20InsufficientAllowance",
      "type": "error"
    },
    {
      "inputs": [
        {
          "internalType": "address",
          "name": "sender",
          "type": "address"
        },
        {
          "internalType": "uint256",
          "name": "balance",
          "type": "uint256"
        },
        {
          "internalType": "uint256",
          "name": "needed",
          "type": "uint256"
        }
      ],
      "name": "ERC20InsufficientBalance",
      "type": "error"
    },
    {
      "inputs": [
        {
          "internalType": "address",
          "name": "approver",
          "type": "address"
        }
      ],
      "name": "ERC20InvalidApprover",
      "type": "error"
    },
    {
      "inputs": [
        {
          "internalType": "address",
          "name": "receiver",
          "type": "address"
        }
      ],
      "name": "ERC20InvalidReceiver",
      "type": "error"
    },
    {
      "inputs": [
        {
          "internalType": "address",
          "name": "sender",
          "type": "address"
        }
      ],
      "name": "ERC20InvalidSender",
      "type": "error"
    },
    {
      "inputs": [
        {
          "internalType": "address",
          "name": "spender",
          "type": "address"
        }
      ],
      "name": "ERC20InvalidSpender",
      "type": "error"
    },
    {
      "inputs": [
        {
          "internalType": "address",
          "name": "owner",
          "type": "address"
        }
      ],
      "name": "OwnableInvalidOwner",
      "type": "error"
    },
    {
      "inputs": [
        {
          "internalType": "address",
          "name": "account",
          "type": "address"
        }
      ],
      "name": "OwnableUnauthorizedAccount",
      "type": "error"
    },
    {
      "anonymous": false,
      "inputs": [
        {
          "indexed": true,
          "internalType": "address",
          "name": "owner",
          "type": "address"
        },
        {
          "indexed": true,
          "internalType": "address",
          "name": "spender",
          "type": "address"
        },
        {
          "indexed": false,
          "internalType": "uint256",
          "name": "value",
          "type": "uint256"
        }
      ],
      "name": "Approval",
      "type": "event"
    },
    {
      "anonymous": false,
      "inputs": [
        {
          "indexed": true,
          "internalType": "address",
          "name": "account",
          "type": "address"
        },
        {
          "indexed": false,
          "internalType": "bool",
          "name": "allowed",
          "type": "bool"
        }
      ],
      "name": "MinterUpdated",
      "type": "event"
    },
    {
      "anonymous": false,
      "inputs": [
        {
          "indexed": true,
          "internalType": "address",
          "name": "previousOwner",
          "type": "address"
        },
        {
          "indexed": true,
          "internalType": "address",
          "name": "newOwner",
          "type": "address"
        }
      ],
      "name": "OwnershipTransferred",
      "type": "event"
    },
    {
      "anonymous": false,
      "inputs": [
        {
          "indexed": true,
          "internalType": "address",
          "name": "from",
          "type": "address"
        },
        {
          "indexed": true,
          "internalType": "address",
          "name": "to",
          "type": "address"
        },
        {
          "indexed": false,
          "internalType": "uint256",
          "name": "value",
          "type": "uint256"
        }
      ],
      "name": "Transfer",
      "type": "event"
    },
    {
      "inputs": [
        {
          "internalType": "address",
          "name": "owner",
          "type": "address"
        },
        {
          "internalType": "address",
          "name": "spender",
          "type": "address"
        }
      ],
      "name": "allowance",
      "outputs": [
        {
          "internalType": "uint256",
          "name": "",
          "type": "uint256"
        }
      ],
      "stateMutability": "view",
      "type": "function"
    },
    {
      "inputs": [
        {
          "internalType": "address",
          "name": "spender",
          "type": "address"
        },
        {
          "internalType": "uint256",
          "name": "value",
          "type": "uint256"
        }
      ],
      "name": "approve",
      "outputs": [
        {
          "internalType": "bool",
          "name": "",
          "type": "bool"
        }
      ],
      "stateMutability": "nonpayable",
      "type": "function"
    },
    {
      "inputs": [
        {
          "internalType": "address",
          "name": "account",
          "type": "address"
        }
      ],
      "name": "balanceOf",
      "outputs": [
        {
          "internalType": "uint256",
          "name": "",
          "type": "uint256"
        }
      ],
      "stateMutability": "view",
      "type": "function"
    },
    {
      "inputs": [
        {
          "internalType": "uint256",
          "name": "value",
          "type": "uint256"
        }
      ],
      "name": "burn",
      "outputs": [],
      "stateMutability": "nonpayable",
      "type": "function"
    },
    {
      "inputs": [
        {
          "internalType": "address",
          "name": "account",
          "type": "address"
        },
        {
          "internalType": "uint256",
          "name": "value",
          "type": "uint256"
        }
      ],
      "name": "burnFrom",
      "outputs": [],
      "stateMutability": "nonpayable",
      "type": "function"
    },
    {
      "inputs": [],
      "name": "decimals",
      "outputs": [
        {
          "internalType": "uint8",
          "name": "",
          "type": "uint8"
        }
      ],
      "stateMutability": "view",
      "type": "function"
    },
    {
      "inputs": [
        {
          "internalType": "address",
          "name": "",
          "type": "address"
        }
      ],
      "name": "isMinter",
      "outputs": [
        {
          "internalType": "bool",
          "name": "",
          "type": "bool"
        }
      ],
      "stateMutability": "view",
      "type": "function"
    },
    {
      "inputs": [
        {
          "internalType": "address",
          "name": "to",
          "type": "address"
        },
        {
          "internalType": "uint256",
          "name": "amount",
          "type": "uint256"
        }
      ],
      "name": "mint",
      "outputs": [],
      "stateMutability": "nonpayable",
      "type": "function"
    },
    {
      "inputs": [],
      "name": "name",
      "outputs": [
        {
          "internalType": "string",
          "name": "",
          "type": "string"
        }
      ],
      "stateMutability": "view",
      "type": "function"
    },
    {
      "inputs": [],
      "name": "owner",
      "outputs": [
        {
          "internalType": "address",
          "name": "",
          "type": "address"
        }
      ],
      "stateMutability": "view",
      "type": "function"
    },
    {
      "inputs": [],
      "name": "renounceOwnership",
      "outputs": [],
      "stateMutability": "nonpayable",
      "type": "function"
    },
    {
      "inputs": [
        {
          "internalType": "address",
          "name": "account",
          "type": "address"
        },
        {
          "internalType": "bool",
          "name": "allowed",
          "type": "bool"
        }
      ],
      "name": "setMinter",
      "outputs": [],
      "stateMutability": "nonpayable",
      "type": "function"
    },
    {
      "inputs": [],
      "name": "symbol",
      "outputs": [
        {
          "internalType": "string",
          "name": "",
          "type": "string"
        }
      ],
      "stateMutability": "view",
      "type": "function"
    },
    {
      "inputs": [],
      "name": "totalSupply",
      "outputs": [
        {
          "internalType": "uint256",
          "name": "",
          "type": "uint256"
        }
      ],
      "stateMutability": "view",
      "type": "function"
    },
    {
      "inputs": [
        {
          "internalType": "address",
          "name": "to",
          "type": "address"
        },
        {
          "internalType": "uint256",
          "name": "value",
          "type": "uint256"
        }
      ],
      "name": "transfer",
      "outputs": [
        {
          "internalType": "bool",
          "name": "",
          "type": "bool"
        }
      ],
      "stateMutability": "nonpayable",
      "type": "function"
    },
    {
      "inputs": [
        {
          "internalType": "address",
          "name": "from",
          "type": "address"
        },
        {
          "internalType": "address",
          "name": "to",
          "type": "address"
        },
        {
          "internalType": "uint256",
          "name": "value",
          "type": "uint256"
        }
      ],
      "name": "transferFrom",
      "outputs": [
        {
          "internalType": "bool",
          "name": "",
          "type": "bool"
        }
      ],
      "stateMutability": "nonpayable",
      "type": "function"
    },
    {
      "inputs": [
        {
          "internalType": "address",
          "name": "newOwner",
          "type": "address"
        }
      ],
      "name": "transferOwnership",
      "outputs": [],
      "stateMutability": "nonpayable",
      "type": "function"
    }
  ],
  "bytecode": "0x6080346200038357601f90601f19906001600160401b039062000e9238819003858101851683018481118482101762000292578392829160405283396020928391810103126200038357516001600160a01b03808216949093909185900362000383576200006c62000387565b95600596878152644d6167696360d81b858201526200008a62000387565b91888352644d4147494360d81b86840152815192848411620002925760039384546001948582811c9216801562000378575b8a8310146200036457818584931162000311575b508990858311600114620002b2575f92620002a6575b50505f1982871b1c191690841b1784555b8051948511620002925760049687548481811c9116801562000287575b8282101462000274578381116200022d575b5080928611600114620001c55750849550908492915f95620001b9575b50501b925f19911b1c19161781555b8215620001a2575082546001600160a01b03198116831790935560405192167f8be0079c531659141344cd1fd0a4f28419497f9722a3daafe3b4186f6b6457e05f80a3610aea9081620003a88239f35b6024905f60405191631e4fbdf760e01b8352820152fd5b015193505f8062000143565b93929585908116885f52855f20955f905b89838310620002125750505010620001f8575b50505050811b01815562000152565b01519060f8845f19921b161c191690555f808080620001e9565b858701518955909701969485019488935090810190620001d6565b885f52815f20848d818a01901c820192848a106200026a575b018d1c019085905b8281106200025e57505062000126565b5f81550185906200024e565b9250819262000246565b602289634e487b7160e01b5f525260245ffd5b90607f169062000114565b634e487b7160e01b5f52604160045260245ffd5b015190505f80620000e6565b908987941691885f528b5f20925f5b8d828210620002fa5750508411620002e2575b505050811b018455620000f7565b01515f1983891b60f8161c191690555f8080620002d4565b8385015186558a97909501949384019301620002c1565b909150865f52895f208d86808601821c8301938d87106200035a575b9186959493918a9301901c01915b8281106200034b575050620000d0565b5f81558594508891016200033b565b935082936200032d565b634e487b7160e01b5f52602260045260245ffd5b91607f1691620000bc565b5f80fd5b60408051919082016001600160401b03811183821017620002925760405256fe608060409080825260049081361015610016575f80fd5b5f3560e01c90816306fdde03146106d957508063095ea7b31461063057806318160ddd1461061257806323b872dd146105d6578063313ce567146105bb57806340c10f19146104c557806342966c68146104a857806370a0823114610472578063715018a61461041757806379cc6790146103e65780638da5cb5b146103be57806395d89b411461029e578063a9059cbb1461026e578063aa271e1a14610232578063cf456ae7146101b5578063dd62ed3e1461016c5763f2fde38b146100db575f80fd5b34610168576020366003190112610168576100f4610816565b906100fd610a88565b6001600160a01b03918216928315610152575050600554826bffffffffffffffffffffffff60a01b821617600555167f8be0079c531659141344cd1fd0a4f28419497f9722a3daafe3b4186f6b6457e05f80a3005b905f6024925191631e4fbdf760e01b8352820152fd5b5f80fd5b8234610168578060031936011261016857602090610188610816565b61019061082c565b9060018060a01b038091165f5260018452825f2091165f528252805f20549051908152f35b82346101685780600319360112610168576101ce610816565b60243590811515809203610168577fb21afb9ce9be0a676f8f317ff0ca072fb89a4f8ce2d1b6fe80f8755c14f1cb1991602091610209610a88565b6001600160a01b03165f81815260068452859020805460ff191660ff84161790559351908152a2005b8234610168576020366003190112610168576020906001600160a01b03610257610816565b165f526006825260ff815f20541690519015158152f35b823461016857806003193601126101685760209061029761028d610816565b602435903361090f565b5160018152f35b509034610168575f366003190112610168578051905f835460018160011c90600183169283156103b4575b60209384841081146103a1578388529081156103855750600114610331575b505050829003601f01601f191682019267ffffffffffffffff84118385101761031e575082918261031a9252826107cf565b0390f35b604190634e487b7160e01b5f525260245ffd5b5f878152929350837f8a35acfbc15ff81a39ae7d344fd709f28e8600b4aa8c65c6b64bfe7fe36bd19b5b83851061037157505050508301015f80806102e8565b80548886018301529301928490820161035b565b60ff1916878501525050151560051b84010190505f80806102e8565b602289634e487b7160e01b5f525260245ffd5b91607f16916102c9565b8234610168575f3660031901126101685760055490516001600160a01b039091168152602090f35b82346101685736600319011261016857610415610401610816565b60243590610410823383610842565b6109e9565b005b34610168575f3660031901126101685761042f610a88565b600580546001600160a01b031981169091555f906001600160a01b03167f8be0079c531659141344cd1fd0a4f28419497f9722a3daafe3b4186f6b6457e08280a3005b8234610168576020366003190112610168576020906001600160a01b03610497610816565b165f525f8252805f20549051908152f35b5034610168576020366003190112610168576104159035336109e9565b5090346101685780600319360112610168576104df610816565b9060243591335f52600660205260ff825f2054161561057f576001600160a01b031692831561056a576002549083820180921161055757505f927fddf252ad1be2c89b69c2b068fc378daa952ba7f163c4a11628f55a4df523b3ef9260209260025585855284835280852082815401905551908152a3005b601190634e487b7160e01b5f525260245ffd5b5f602492519163ec442f0560e01b8352820152fd5b815162461bcd60e51b8152602081860152601660248201527526b0b3b4b1aa37b5b2b71d103737ba1036b4b73a32b960511b6044820152606490fd5b8234610168575f366003190112610168576020905160128152f35b8234610168576060366003190112610168576020906102976105f6610816565b6105fe61082c565b6044359161060d833383610842565b61090f565b8234610168575f366003190112610168576020906002549051908152f35b50903461016857806003193601126101685761064a610816565b6024359033156106c3576001600160a01b03169081156106ad5760209350335f5260018452825f20825f52845280835f205582519081527f8c5be1e5ebec7d5bd14f71427d1e84f3dd0314c0f7b2291e5b200ac8c7c3b925843392a35160018152f35b8251634a1406b160e11b81525f81860152602490fd5b825163e602df0560e01b81525f81860152602490fd5b90508234610168575f366003190112610168575f60035460018160011c90600183169283156107c5575b60209384841081146103a1578388529081156107a9575060011461075357505050829003601f01601f191682019267ffffffffffffffff84118385101761031e575082918261031a9252826107cf565b60035f908152929350837fc2575a0e9e593c00f959f8c92f12db2869c3395a3b0502d05e2516446f71f85b5b83851061079557505050508301018480806102e8565b80548886018301529301928490820161077f565b60ff1916878501525050151560051b84010190508480806102e8565b91607f1691610703565b602080825282518183018190529093925f5b82811061080257505060409293505f838284010152601f8019910116010190565b8181018601518482016040015285016107e1565b600435906001600160a01b038216820361016857565b602435906001600160a01b038216820361016857565b919060018060a01b0380931692835f526001602052604093845f2091831691825f52602052845f2054925f19841061087d575b505050505050565b8484106108df575080156108c85781156108b1575f526001602052835f20905f5260205203905f20555f8080808080610875565b8451634a1406b160e11b81525f6004820152602490fd5b845163e602df0560e01b81525f6004820152602490fd5b8551637dc7a0d960e11b81526001600160a01b039190911660048201526024810184905260448101859052606490fd5b916001600160a01b038084169283156109d157169283156109b957825f525f60205260405f2054908282106109875750817fddf252ad1be2c89b69c2b068fc378daa952ba7f163c4a11628f55a4df523b3ef92602092855f525f84520360405f2055845f5260405f20818154019055604051908152a3565b60405163391434e360e21b81526001600160a01b03919091166004820152602481019190915260448101829052606490fd5b60405163ec442f0560e01b81525f6004820152602490fd5b604051634b637e8f60e11b81525f6004820152602490fd5b91906001600160a01b0383169081156109d157815f525f60205260405f205493818510610a5657506020817fddf252ad1be2c89b69c2b068fc378daa952ba7f163c4a11628f55a4df523b3ef925f95968587528684520360408620558060025403600255604051908152a3565b60405163391434e360e21b81526001600160a01b03919091166004820152602481018590526044810191909152606490fd5b6005546001600160a01b03163303610a9c57565b60405163118cdaa760e01b8152336004820152602490fdfea2646970667358221220080509cbc227b367d7db12c6aa9f58db98a188f6cd6c1cde63bcb060cb039acf64736f6c63430008180033",
  "linkReferences": {},
  "deployedLinkReferences": {},
  "immutableReferences": {},
  "inputSourceName": "project/contracts/MagicToken.sol",
  "buildInfoId": "solc-0_8_24-6eb627a6f1292f2549bcad9dde4de7b95baee712"
}