{
  "_format": "hh3-artifact-1",
  "contractName": "Portal",
  "sourceName": "contracts/Portal.sol",
  "abi": [
    {
      "inputs": [
        {
          "internalType": "address",
          "name": "locationRegistry_",
          "type": "address"
        },
        {
          "internalType": "address",
          "name": "locationUnlock_",
          "type": "address"
        }
      ],
      "stateMutability": "nonpayable",
      "type": "constructor"
    },
    {
      "anonymous": false,
      "inputs": [
        {
          "indexed": true,
          "internalType": "address",
          "name": "player",
          "type": "address"
        },
        {
          "indexed": true,
          "internalType": "uint256",
          "name": "portalId",
          "type": "uint256"
        },
        {
          "indexed": true,
          "internalType": "uint256",
          "name": "sourceLocationId",
          "type": "uint256"
        },
        {
          "indexed": false,
          "internalType": "uint256",
          "name": "targetChainletId",
          "type": "uint256"
        },
        {
          "indexed": false,
          "internalType": "string",
          "name": "targetLocationSlug",
          "type": "string"
        }
      ],
      "name": "PortalActivated",
      "type": "event"
    },
    {
      "anonymous": false,
      "inputs": [
        {
          "indexed": true,
          "internalType": "uint256",
          "name": "portalId",
          "type": "uint256"
        },
        {
          "indexed": true,
          "internalType": "uint256",
          "name": "sourceLocationId",
          "type": "uint256"
        },
        {
          "indexed": false,
          "internalType": "uint256",
          "name": "targetChainletId",
          "type": "uint256"
        },
        {
          "indexed": false,
          "internalType": "string",
          "name": "targetLocationSlug",
          "type": "string"
        }
      ],
      "name": "PortalCreated",
      "type": "event"
    },
    {
      "inputs": [
        {
          "internalType": "uint256",
          "name": "portalId",
          "type": "uint256"
        }
      ],
      "name": "activatePortal",
      "outputs": [],
      "stateMutability": "nonpayable",
      "type": "function"
    },
    {
      "inputs": [
        {
          "internalType": "uint256",
          "name": "sourceLocationId",
          "type": "uint256"
        },
        {
          "internalType": "uint256",
          "name": "targetChainletId",
          "type": "uint256"
        },
        {
          "internalType": "string",
          "name": "targetLocationSlug",
          "type": "string"
        }
      ],
      "name": "createPortal",
      "outputs": [
        {
          "internalType": "uint256",
          "name": "",
          "type": "uint256"
        }
      ],
      "stateMutability": "nonpayable",
      "type": "function"
    },
    {
      "inputs": [
        {
          "internalType": "uint256",
          "name": "sourceLocationId",
          "type": "uint256"
        }
      ],
      "name": "findPortalBySourceLocation",
      "outputs": [
        {
          "internalType": "uint256",
          "name": "",
          "type": "uint256"
        }
      ],
      "stateMutability": "view",
      "type": "function"
    },
    {
      "inputs": [
        {
          "internalType": "uint256",
          "name": "portalId",
          "type": "uint256"
        }
      ],
      "name": "getPortal",
      "outputs": [
        {
          "components": [
            {
              "internalType": "uint256",
              "name": "sourceLocationId",
              "type": "uint256"
            },
            {
              "internalType": "uint256",
              "name": "targetChainletId",
              "type": "uint256"
            },
            {
              "internalType": "string",
              "name": "targetLocationSlug",
              "type": "string"
            },
            {
              "internalType": "bool",
              "name": "isActive",
              "type": "bool"
            }
          ],
          "internalType": "struct Portal.PortalConfig",
          "name": "",
          "type": "tuple"
        }
      ],
      "stateMutability": "view",
      "type": "function"
    },
    {
      "inputs": [],
      "name": "locationRegistry",
      "outputs": [
        {
          "internalType": "contract LocationRegistry",
          "name": "",
          "type": "address"
        }
      ],
      "stateMutability": "view",
      "type": "function"
    },
    {
      "inputs": [],
      "name": "locationUnlock",
      "outputs": [
        {
          "internalType": "contract LocationUnlock",
          "name": "",
          "type": "address"
        }
      ],
      "stateMutability": "view",
      "type": "function"
    },
    {
      "inputs": [
        {
          "internalType": "uint256",
          "name": "",
          "type": "uint256"
        }
      ],
      "name": "portals",
      "outputs": [
        {
          "internalType": "uint256",
          "name": "sourceLocationId",
          "type": "uint256"
        },
        {
          "internalType": "uint256",
          "name": "targetChainletId",
          "type": "uint256"
        },
        {
          "internalType": "string",
          "name": "targetLocationSlug",
          "type": "string"
        },
        {
          "internalType": "bool",
          "name": "isActive",
          "type": "bool"
        }
      ],
      "stateMutability": "view",
      "type": "function"
    },
    {
      "inputs": [
        {
          "internalType": "uint256",
          "name": "portalId",
          "type": "uint256"
        },
        {
          "internalType": "bool",
          "name": "active",
          "type": "bool"
        }
      ],
      "name": "setPortalActive",
      "outputs": [],
      "stateMutability": "nonpayable",
      "type": "function"
    },
    {
      "inputs": [],
      "name": "totalPortals",
      "outputs": [
        {
          "internalType": "uint256",
          "name": "",
          "type": "uint256"
        }
      ],
      "stateMutability": "view",
      "type": "function"
    }
  ],
  "bytecode": "0x60803461009057601f610e4d38819003918201601f19168301916001600160401b0383118484101761009457808492604094855283398101031261009057610052602061004b836100a8565b92016100a8565b600160038190555f80546001600160a01b03199081166001600160a01b039586161790915581541691909216179055604051610d9090816100bd8239f35b5f80fd5b634e487b7160e01b5f52604160045260245ffd5b51906001600160a01b03821682036100905756fe60a0604081815260049182361015610015575f80fd5b5f3560e01c90816316c21250146109ae575080632ad2f9cc146109865780634c85204a1461095f578063611f893d14610542578063643bb7571461051d578063a561ccff146104bd578063abdb7ead14610129578063aed6bde1146100c25763c133923714610082575f80fd5b346100be575f3660031901126100be576003545f198101919082116100ab576020925051908152f35b601183634e487b7160e01b5f525260245ffd5b5f80fd5b5090346100be5760203660031901126100be57355f526002602052805f209081549061011d600184015493608060ff60036100ff60028501610b4c565b93015416938051968796875260208701528501526080840190610a9d565b90151560608301520390f35b50346100be5760603660031901126100be57813560443567ffffffffffffffff60248183116100be57366023840112156100be5782860135928284116100be5781810190828536920101116100be575f5486516308c724c160e21b81528089018790526020989189908290869082906001600160a01b03165afa80156104b3575f9061047d575b6101ba9150610c47565b84156104265760035460805260019081608051018060805111610414576003558751946101e686610afa565b87865289860192853584526101fa88610ca2565b926102078b519485610b2a565b88845288868d8601375f8c8a860101528a880193845260608801948286526080515f5260028d528b5f209851895551828901556002880193519081519384116104025750908392918c61025d8b98979654610ac2565b601f81116103a8575b50508c908d601f851160011461031757509280806102d397947fa75babb0e50f7989d08dda749ea9176267248718b2c3d0a347cecfc021bb31739c97946003975f9461030c575b50501b915f1990861b1c19161790555b51151591019060ff801983541691151516179055565b8651923583528688840152818784015260608301375f6060848301015260608160805194601f80199101168101030190a3516080518152f35b015192505f806102ad565b9190601f949394198416865f52835f20935f905b82821061038e575050926003959285926102d399967fa75babb0e50f7989d08dda749ea9176267248718b2c3d0a347cecfc021bb31739e999610610377575b505050811b0190556102bd565b01515f1983881b60f8161c191690555f808061036a565b8385015186558e9b5094870194938401939081019061032b565b909192939480969798505f52815f2090601f860160051c82019286106103f8575b90601f8c99989796959493920160051c01905b8181106103eb578e9150610266565b5f81558b985083016103dc565b90915081906103c9565b60418891634e487b7160e01b5f52525ffd5b84601183634e487b7160e01b5f52525ffd5b865162461bcd60e51b8152908101889052602c818401527f506f7274616c3a20746172676574206c6f636174696f6e20736c75672063616e60448201526b6e6f7420626520656d70747960a01b6064820152608490fd5b508881813d83116104ac575b6104938183610b2a565b810103126100be576104a76101ba91610c3a565b6101b0565b503d610489565b88513d5f823e3d90fd5b5090346100be57816003193601126100be57356024359081151582036100be576105119281600392151580610513575b6104f690610bee565b5f5260026020525f20019060ff801983541691151516179055565b005b50825481106104ed565b50346100be5760203660031901126100be5761053b60209235610d03565b9051908152f35b50346100be57602090816003193601126100be57823591825f526002815260ff6003835f200154161561091d57825f5260028152815f20825161058481610afa565b8154815260018201549583820196875260ff60036105a460028601610b4c565b84880190815294015416151560608301525f54825186516308c724c160e21b8152838101919091526024916001600160a01b03919082169087818581855afa8015610913575f906108dd575b6105fa9150610c47565b5f8551848a5180948193637f7b139360e01b8352898301525afa80156104b3575f9061078d575b60e0915001511561073d576001541685845160448951809481936394c0f04960e01b83523389840152878301525afa908115610733575f916106fe575b50156106ac575050906106a77fb22406a1146adc4f8ef40d7c34a9b4c5329f2f079c8dc20e11a66ac3ee0c5cef9392519651915185805194859485528401523395830190610a9d565b0390a4005b855162461bcd60e51b81529182018590526027908201527f506f7274616c3a20736f75726365206c6f636174696f6e206973206e6f7420756044820152661b9b1bd8dad95960ca1b6064820152608490fd5b90508581813d831161072c575b6107158183610b2a565b810103126100be5761072690610c3a565b5f61065e565b503d61070b565b87513d5f823e3d90fd5b865162461bcd60e51b81528084018790526025818401527f506f7274616c3a20736f75726365206c6f636174696f6e206973206e6f742061604482015264637469766560d81b6064820152608490fd5b503d805f833e61079d8183610b2a565b810187828203126100be57815167ffffffffffffffff928382116100be5701906101609182818303126100be578a51928301838110858211176108cb578b5280518352898101518481116100be57826107f7918301610cbe565b8a8401528a8101518481116100be5782610812918301610cbe565b8b84015260608101518481116100be578261082e918301610cbe565b60608401526080810151600b8110156100be57608084015260a081015160058110156100be5760a084015260c081015160c084015261086f60e08201610c3a565b60e0840152610100808201518581116100be578361088e918401610cbe565b90840152610120808201519086821682036100be5784015261014091828201519485116100be5760e0946108c29201610cbe565b90820152610621565b86604189634e487b7160e01b5f52525ffd5b508781813d831161090c575b6108f38183610b2a565b810103126100be576109076105fa91610c3a565b6105f0565b503d6108e9565b89513d5f823e3d90fd5b8390606492519162461bcd60e51b8352820152601c60248201527f506f7274616c3a20706f7274616c206973206e6f7420616374697665000000006044820152fd5b50346100be575f3660031901126100be575f5490516001600160a01b039091168152602090f35b50346100be575f3660031901126100be5760015490516001600160a01b039091168152602090f35b9050346100be57602092836003193601126100be5760605f9135926109d281610afa565b82815282868201528185820152015280151580610a71575b6109f390610bee565b5f5260028252805f2090610a64815192610a0c84610afa565b8054845260018101549285850193845260ff6003610a2c60028501610b4c565b9383880194855201541693606086019415158552815196879681885251908701525190850152516080606085015260a0840190610a9d565b9051151560808301520390f35b5060035481106109ea565b5f5b838110610a8d5750505f910152565b8181015183820152602001610a7e565b90602091610ab681518092818552858086019101610a7c565b601f01601f1916010190565b90600182811c92168015610af0575b6020831014610adc57565b634e487b7160e01b5f52602260045260245ffd5b91607f1691610ad1565b6080810190811067ffffffffffffffff821117610b1657604052565b634e487b7160e01b5f52604160045260245ffd5b90601f8019910116810190811067ffffffffffffffff821117610b1657604052565b9060405191825f8254610b5e81610ac2565b908184526020946001916001811690815f14610bcc5750600114610b8e575b505050610b8c92500383610b2a565b565b5f90815285812095935091905b818310610bb4575050610b8c93508201015f8080610b7d565b85548884018501529485019487945091830191610b9b565b92505050610b8c94925060ff191682840152151560051b8201015f8080610b7d565b15610bf557565b60405162461bcd60e51b815260206004820152601d60248201527f506f7274616c3a20706f7274616c20646f6573206e6f742065786973740000006044820152606490fd5b519081151582036100be57565b15610c4e57565b60405162461bcd60e51b815260206004820152602660248201527f506f7274616c3a20736f75726365206c6f636174696f6e20646f6573206e6f7460448201526508195e1a5cdd60d21b6064820152608490fd5b67ffffffffffffffff8111610b1657601f01601f191660200190565b81601f820112156100be578051610cd481610ca2565b92610ce26040519485610b2a565b818452602082840101116100be57610d009160208085019101610a7c565b90565b60019060019060038054925b838110610d1f5750505050505f90565b805f52600260205260405f2082848254149182610d4c575b5050610d44578401610d0f565b935050505090565b60ff9250015416825f610d3756fea2646970667358221220cf572cd9ff7d0c0bab7f08eb85512255de652f8bed02f5487ffd85e3ad18896164736f6c63430008180033",
  "linkReferences": {},
  "deployedLinkReferences": {},
  "immutableReferences": {},
  "inputSourceName": "project/contracts/Portal.sol",
  "buildInfoId": "solc-0_8_24-929de1cd5fd44ed410debb6a2a127fa1bface0f7"
}