{
  "_format": "hh3-artifact-1",
  "contractName": "LocationUnlock",
  "sourceName": "contracts/LocationUnlock.sol",
  "abi": [
    {
      "inputs": [
        {
          "internalType": "address",
          "name": "locationRegistry_",
          "type": "address"
        },
        {
          "internalType": "address",
          "name": "admin_",
          "type": "address"
        }
      ],
      "stateMutability": "nonpayable",
      "type": "constructor"
    },
    {
      "inputs": [],
      "name": "AccessControlBadConfirmation",
      "type": "error"
    },
    {
      "inputs": [
        {
          "internalType": "address",
          "name": "account",
          "type": "address"
        },
        {
          "internalType": "bytes32",
          "name": "neededRole",
          "type": "bytes32"
        }
      ],
      "name": "AccessControlUnauthorizedAccount",
      "type": "error"
    },
    {
      "anonymous": false,
      "inputs": [
        {
          "indexed": true,
          "internalType": "address",
          "name": "player",
          "type": "address"
        },
        {
          "indexed": true,
          "internalType": "uint256",
          "name": "locationId",
          "type": "uint256"
        }
      ],
      "name": "LocationUnlocked",
      "type": "event"
    },
    {
      "anonymous": false,
      "inputs": [
        {
          "indexed": true,
          "internalType": "bytes32",
          "name": "role",
          "type": "bytes32"
        },
        {
          "indexed": true,
          "internalType": "bytes32",
          "name": "previousAdminRole",
          "type": "bytes32"
        },
        {
          "indexed": true,
          "internalType": "bytes32",
          "name": "newAdminRole",
          "type": "bytes32"
        }
      ],
      "name": "RoleAdminChanged",
      "type": "event"
    },
    {
      "anonymous": false,
      "inputs": [
        {
          "indexed": true,
          "internalType": "bytes32",
          "name": "role",
          "type": "bytes32"
        },
        {
          "indexed": true,
          "internalType": "address",
          "name": "account",
          "type": "address"
        },
        {
          "indexed": true,
          "internalType": "address",
          "name": "sender",
          "type": "address"
        }
      ],
      "name": "RoleGranted",
      "type": "event"
    },
    {
      "anonymous": false,
      "inputs": [
        {
          "indexed": true,
          "internalType": "bytes32",
          "name": "role",
          "type": "bytes32"
        },
        {
          "indexed": true,
          "internalType": "address",
          "name": "account",
          "type": "address"
        },
        {
          "indexed": true,
          "internalType": "address",
          "name": "sender",
          "type": "address"
        }
      ],
      "name": "RoleRevoked",
      "type": "event"
    },
    {
      "inputs": [],
      "name": "DEFAULT_ADMIN_ROLE",
      "outputs": [
        {
          "internalType": "bytes32",
          "name": "",
          "type": "bytes32"
        }
      ],
      "stateMutability": "view",
      "type": "function"
    },
    {
      "inputs": [],
      "name": "UNLOCK_ADMIN_ROLE",
      "outputs": [
        {
          "internalType": "bytes32",
          "name": "",
          "type": "bytes32"
        }
      ],
      "stateMutability": "view",
      "type": "function"
    },
    {
      "inputs": [
        {
          "internalType": "address",
          "name": "player",
          "type": "address"
        },
        {
          "internalType": "uint256",
          "name": "locationId",
          "type": "uint256"
        }
      ],
      "name": "adminUnlockLocation",
      "outputs": [],
      "stateMutability": "nonpayable",
      "type": "function"
    },
    {
      "inputs": [
        {
          "internalType": "address",
          "name": "player",
          "type": "address"
        },
        {
          "internalType": "uint256[]",
          "name": "locationIds",
          "type": "uint256[]"
        }
      ],
      "name": "areLocationsUnlocked",
      "outputs": [
        {
          "internalType": "bool[]",
          "name": "",
          "type": "bool[]"
        }
      ],
      "stateMutability": "view",
      "type": "function"
    },
    {
      "inputs": [
        {
          "internalType": "address",
          "name": "player",
          "type": "address"
        },
        {
          "internalType": "uint256",
          "name": "locationId",
          "type": "uint256"
        }
      ],
      "name": "canAccessLocation",
      "outputs": [
        {
          "internalType": "bool",
          "name": "",
          "type": "bool"
        }
      ],
      "stateMutability": "view",
      "type": "function"
    },
    {
      "inputs": [
        {
          "internalType": "bytes32",
          "name": "role",
          "type": "bytes32"
        }
      ],
      "name": "getRoleAdmin",
      "outputs": [
        {
          "internalType": "bytes32",
          "name": "",
          "type": "bytes32"
        }
      ],
      "stateMutability": "view",
      "type": "function"
    },
    {
      "inputs": [
        {
          "internalType": "address",
          "name": "player",
          "type": "address"
        }
      ],
      "name": "getUnlockedCount",
      "outputs": [
        {
          "internalType": "uint256",
          "name": "",
          "type": "uint256"
        }
      ],
      "stateMutability": "view",
      "type": "function"
    },
    {
      "inputs": [
        {
          "internalType": "address",
          "name": "player",
          "type": "address"
        }
      ],
      "name": "getUnlockedLocations",
      "outputs": [
        {
          "internalType": "uint256[]",
          "name": "",
          "type": "uint256[]"
        }
      ],
      "stateMutability": "view",
      "type": "function"
    },
    {
      "inputs": [
        {
          "internalType": "bytes32",
          "name": "role",
          "type": "bytes32"
        },
        {
          "internalType": "address",
          "name": "account",
          "type": "address"
        }
      ],
      "name": "grantRole",
      "outputs": [],
      "stateMutability": "nonpayable",
      "type": "function"
    },
    {
      "inputs": [
        {
          "internalType": "bytes32",
          "name": "role",
          "type": "bytes32"
        },
        {
          "internalType": "address",
          "name": "account",
          "type": "address"
        }
      ],
      "name": "hasRole",
      "outputs": [
        {
          "internalType": "bool",
          "name": "",
          "type": "bool"
        }
      ],
      "stateMutability": "view",
      "type": "function"
    },
    {
      "inputs": [],
      "name": "locationRegistry",
      "outputs": [
        {
          "internalType": "contract LocationRegistry",
          "name": "",
          "type": "address"
        }
      ],
      "stateMutability": "view",
      "type": "function"
    },
    {
      "inputs": [
        {
          "internalType": "bytes32",
          "name": "role",
          "type": "bytes32"
        },
        {
          "internalType": "address",
          "name": "callerConfirmation",
          "type": "address"
        }
      ],
      "name": "renounceRole",
      "outputs": [],
      "stateMutability": "nonpayable",
      "type": "function"
    },
    {
      "inputs": [
        {
          "internalType": "bytes32",
          "name": "role",
          "type": "bytes32"
        },
        {
          "internalType": "address",
          "name": "account",
          "type": "address"
        }
      ],
      "name": "revokeRole",
      "outputs": [],
      "stateMutability": "nonpayable",
      "type": "function"
    },
    {
      "inputs": [
        {
          "internalType": "bytes4",
          "name": "interfaceId",
          "type": "bytes4"
        }
      ],
      "name": "supportsInterface",
      "outputs": [
        {
          "internalType": "bool",
          "name": "",
          "type": "bool"
        }
      ],
      "stateMutability": "view",
      "type": "function"
    },
    {
      "inputs": [
        {
          "internalType": "uint256",
          "name": "locationId",
          "type": "uint256"
        }
      ],
      "name": "unlockLocation",
      "outputs": [],
      "stateMutability": "nonpayable",
      "type": "function"
    },
    {
      "inputs": [
        {
          "internalType": "address",
          "name": "",
          "type": "address"
        },
        {
          "internalType": "uint256",
          "name": "",
          "type": "uint256"
        }
      ],
      "name": "unlockedLocations",
      "outputs": [
        {
          "internalType": "bool",
          "name": "",
          "type": "bool"
        }
      ],
      "stateMutability": "view",
      "type": "function"
    }
  ],
  "bytecode": "0x608034620000a257601f6200138a38819003918201601f19168301916001600160401b03831184841017620000a6578084926040948552833981010312620000a257806200005f6020620000576200009194620000ba565b9201620000ba565b600180546001600160a01b0319166001600160a01b03909316929092179091556200008a81620000cf565b506200013f565b5060405161116a9081620001e08239f35b5f80fd5b634e487b7160e01b5f52604160045260245ffd5b51906001600160a01b0382168203620000a257565b6001600160a01b03165f8181525f805160206200136a833981519152602052604090205460ff166200013a575f8181525f805160206200136a83398151915260205260408120805460ff191660011790553391905f805160206200134a8339815191528180a4600190565b505f90565b6001600160a01b03165f8181527f0ce43bd120551d0495730f14216d4632189d28614d90295fd27f24681eefc05660205260409020547fb6222bc6cc03a228f3cf8fb1a0fcc4d026dae9d92a538f341b94ba503cf78244919060ff16620001d957815f525f60205260405f20815f5260205260405f20600160ff1982541617905533915f805160206200134a8339815191525f80a4600190565b50505f9056fe608060409080825260049081361015610016575f80fd5b5f3560e01c90816301ffc9a71461057b57508063248a9ca3146105515780632f2ff15d1461052857806334a4b72e1461047e57806336568abe146104395780634c85204a146104115780635e15c190146103d7578063898f1d4d146103bb57806391d148541461037757806394c0f04914610346578063a217fddf1461032c578063b3cf1769146102f5578063c04f0ce6146102b0578063d303d5b214610230578063d547741f146101f45763feebea85146100d0575f80fd5b346101f057816003193601126101f0576100e86105e3565b906024906024359267ffffffffffffffff918285116101f057366023860112156101f0578401359182116101f05760053660248460051b870101116101f057918593949261013582610d57565b95610142865197886105f9565b82875261014e83610d57565b9460209485890196601f19013688376001600160a01b03165f5b8581106101b35750505050505082519384938285019183865251809252840192915f5b82811061019a57505050500390f35b835115158552869550938101939281019260010161018b565b600190825f9b999a9b52600288528a5f208582881b860101355f52885260ff8b5f2054166101e1828b610d6f565b90151590520198979698610168565b5f80fd5b5090346101f057806003193601126101f05761022e913561022960016102186105cd565b93835f525f6020525f200154610d83565b610e3e565b005b50346101f057816003193601126101f0576102496105e3565b917fb6222bc6cc03a228f3cf8fb1a0fcc4d026dae9d92a538f341b94ba503cf7824490815f525f602052805f20335f5260205260ff815f205416156102945761022e60243585610bc2565b60449350519163e2517d3f60e01b835233908301526024820152fd5b82346101f057806003193601126101f0576020906001600160a01b036102d46105e3565b165f5260028252805f206024355f52825260ff815f20541690519015158152f35b82346101f05760203660031901126101f0576020906001600160a01b0361031a6105e3565b165f5260038252805f20549051908152f35b82346101f0575f3660031901126101f057602090515f8152f35b82346101f057806003193601126101f05760209061036e6103656105e3565b60243590610ab5565b90519015158152f35b5090346101f057806003193601126101f0576020916103946105cd565b90355f525f8352815f209060018060a01b03165f52825260ff815f20541690519015158152f35b50346101f05760203660031901126101f05761022e90356108f9565b82346101f0575f3660031901126101f057602090517fb6222bc6cc03a228f3cf8fb1a0fcc4d026dae9d92a538f341b94ba503cf782448152f35b82346101f0575f3660031901126101f05760015490516001600160a01b039091168152602090f35b5090346101f057806003193601126101f0576104536105cd565b90336001600160a01b0383160361046f575061022e9135610e3e565b5163334bd91960e11b81529050fd5b82346101f0576020806003193601126101f057906001600160a01b036104a26105e3565b165f5260038252805f208151928381835491828152019081935f52825f20905f5b81811061051457505050846104d99103856105f9565b825181815293518185018190528493840192915f5b8281106104fd57505050500390f35b8351855286955093810193928101926001016104ee565b8254845292840192600192830192016104c3565b5090346101f057806003193601126101f05761022e913561054c60016102186105cd565b610dc2565b5090346101f05760203660031901126101f057602091355f525f82526001815f2001549051908152f35b82346101f05760203660031901126101f057359063ffffffff60e01b82168092036101f057602091637965db0b60e01b81149081156105bc575b5015158152f35b6301ffc9a760e01b149050836105b5565b602435906001600160a01b03821682036101f057565b600435906001600160a01b03821682036101f057565b90601f8019910116810190811067ffffffffffffffff82111761061b57604052565b634e487b7160e01b5f52604160045260245ffd5b519081151582036101f057565b6040513d5f823e3d90fd5b1561064e57565b60405162461bcd60e51b815260206004820152602760248201527f4c6f636174696f6e556e6c6f636b3a206c6f636174696f6e20646f6573206e6f6044820152661d08195e1a5cdd60ca1b6064820152608490fd5b919080601f840112156101f057825167ffffffffffffffff811161061b57602090604051926106db83601f19601f85011601856105f9565b8184528282870101116101f0575f5b8181106106fe5750825f9394955001015290565b85810183015184820184015282016106ea565b9190916101609081818503126101f0576040519182019067ffffffffffffffff918381108382111761061b5760405282948151845260208201518381116101f0578161075e9184016106a3565b602085015260408201518381116101f0578161077b9184016106a3565b604085015260608201518381116101f057816107989184016106a3565b60608501526080820151600b8110156101f057608085015260a082015160058110156101f05760a085015260c082015160c08501526107d960e0830161062f565b60e0850152610100808301518481116101f057826107f89185016106a3565b9085015261012082810151906001600160a01b03821682036101f05785015261014092838301519081116101f05761083092016106a3565b910152565b906020828203126101f057815167ffffffffffffffff81116101f05761085b9201610711565b90565b1561086557565b60405162461bcd60e51b815260206004820152602660248201527f4c6f636174696f6e556e6c6f636b3a206c6f636174696f6e206973206e6f742060448201526561637469766560d01b6064820152608490fd5b8054906801000000000000000082101561061b57600182018082558210156108e5575f5260205f200155565b634e487b7160e01b5f52603260045260245ffd5b600154604080516308c724c160e21b815260048101849052602093926001600160a01b0316908481602481855afa908115610aab575f91610a6c575b506024916109435f92610647565b835192838092637f7b139360e01b82528760048301525afa908115610a625761097a9160e0915f91610a40575b500151151561085e565b335f5260028352805f20825f52835260ff815f205416610a3b57610a0392335f5260028152815f20835f528152815f209160ff1992600184825416179055335f5260048252805f20845f52825260ff815f20541615610a05575b50505080337f9a4096c6af895b20e5635ab857a34639f14f32846978e479ff8f85d25181f8df5f80a333610f46565b565b600191335f5260038152610a1b85835f206108b9565b335f5260048152815f2090855f52525f20918254161790555f80806109d4565b505050565b610a5c91503d805f833e610a5481836105f9565b810190610835565b5f610970565b82513d5f823e3d90fd5b90508481813d8311610aa4575b610a8381836105f9565b810103126101f057602491610943610a9b5f9361062f565b92505091610935565b503d610a79565b83513d5f823e3d90fd5b600154604080516308c724c160e21b8152600481018590529293909290916020916001600160a01b03918216908381602481855afa908115610bb8575f91610b83575b5015610b79575f602491865192838092637f7b139360e01b82528860048301525afa908115610b6f579060e0915f91610b55575b50015115610b4c5760ff94165f5260028152825f20915f52525f20541690565b50505050505f90565b610b6991503d805f833e610a5481836105f9565b5f610b2c565b85513d5f823e3d90fd5b5050505050505f90565b90508381813d8311610bb1575b610b9a81836105f9565b810103126101f057610bab9061062f565b5f610af8565b503d610b90565b86513d5f823e3d90fd5b600154604080516308c724c160e21b815260048101859052909392916020916001600160a01b03918216908381602481855afa908115610d4d575f91610d0e575b50602491610c115f92610647565b875192838092637f7b139360e01b82528960048301525afa908115610bb857610c479160e0915f91610a4057500151151561085e565b8216805f5260028252845f20845f52825260ff855f205416610d0757610a03948492825f5260028152815f20845f528152815f209160ff1992600184825416179055835f5260048252805f20855f52825260ff815f20541615610cd1575b5050507f9a4096c6af895b20e5635ab857a34639f14f32846978e479ff8f85d25181f8df5f80a3610f46565b600191845f5260038152610ce786835f206108b9565b845f5260048152815f2090865f52525f20918254161790555f8080610ca5565b5050505050565b90508381813d8311610d46575b610d2581836105f9565b810103126101f057602491610c11610d3d5f9361062f565b92505091610c03565b503d610d1b565b87513d5f823e3d90fd5b67ffffffffffffffff811161061b5760051b60200190565b80518210156108e55760209160051b010190565b805f525f60205260405f20335f5260205260ff60405f20541615610da45750565b6044906040519063e2517d3f60e01b82523360048301526024820152fd5b90815f525f60205260405f209060018060a01b031690815f5260205260ff60405f205416155f14610e3857815f525f60205260405f20815f5260205260405f20600160ff1982541617905533917f2f8788117e7eff1d82e926ec794901d17c78024a50270940304540a733656f0d5f80a4600190565b50505f90565b90815f525f60205260405f209060018060a01b031690815f5260205260ff60405f2054165f14610e3857815f525f60205260405f20815f5260205260405f2060ff19815416905533917ff6391f5c32d9c69d2a47ea670b442974b53935d1edc7fd64eb21e047a839171b5f80a4600190565b9060209081838203126101f057825167ffffffffffffffff938482116101f0570181601f820112156101f0578051610ee781610d57565b94610ef560405196876105f9565b818652848087019260051b840101938085116101f057858401925b858410610f21575050505050505090565b83518381116101f0578791610f3b848480948a0101610711565b815201930192610f10565b610f8e905f600193610f6e610f6260015460018060a01b031690565b6001600160a01b031690565b60405180809681946377864dd360e11b8352600483019190602083019252565b03915afa801561112f5783925f9161110d575b505f925b610fb0575b50505050565b8051831015611108578383610fc6829584610d6f565b5151610ffd610ff682610fe98860018060a01b03165f52600260205260405f2090565b905f5260205260405f2090565b5460ff1690565b6111025761101f61101b60e06110138588610d6f565b510151151590565b1590565b61110257806110556110486110b393610fe98960018060a01b03165f52600260205260405f2090565b805460ff19166001179055565b61107961101b610ff683610fe98a60018060a01b03165f52600460205260405f2090565b6110ba575b806001600160a01b0387167f9a4096c6af895b20e5635ab857a34639f14f32846978e479ff8f85d25181f8df5f80a385610f46565b0192610fa5565b6001600160a01b0386165f9081526003602052604090206110dc9082906108b9565b6110fd61104882610fe98960018060a01b03165f52600460205260405f2090565b61107e565b506110b3565b610faa565b61112991503d805f833e61112181836105f9565b810190610eb0565b5f610fa1565b61063c56fea26469706673582212206a94624396fa9b3e70d8208b5d0d288f8d7a29eb404a1f5a8e1368241438e7bc64736f6c634300081800332f8788117e7eff1d82e926ec794901d17c78024a50270940304540a733656f0dad3228b676f7d3cd4284a5443f17f1962b36e491b30a40b2405849e597ba5fb5",
  "linkReferences": {},
  "deployedLinkReferences": {},
  "immutableReferences": {},
  "inputSourceName": "project/contracts/LocationUnlock.sol",
  "buildInfoId": "solc-0_8_24-c5df8a5814305c0a7d187f6f574fd89eba67ec88"
}