{
  "_format": "hh3-artifact-1",
  "contractName": "TotemManager",
  "sourceName": "contracts/TotemManager.sol",
  "abi": [
    {
      "inputs": [
        {
          "internalType": "address",
          "name": "owner_",
          "type": "address"
        },
        {
          "internalType": "address",
          "name": "artifactContract",
          "type": "address"
        },
        {
          "internalType": "address",
          "name": "magicToken",
          "type": "address"
        }
      ],
      "stateMutability": "nonpayable",
      "type": "constructor"
    },
    {
      "inputs": [
        {
          "internalType": "address",
          "name": "owner",
          "type": "address"
        }
      ],
      "name": "OwnableInvalidOwner",
      "type": "error"
    },
    {
      "inputs": [
        {
          "internalType": "address",
          "name": "account",
          "type": "address"
        }
      ],
      "name": "OwnableUnauthorizedAccount",
      "type": "error"
    },
    {
      "inputs": [],
      "name": "ReentrancyGuardReentrantCall",
      "type": "error"
    },
    {
      "anonymous": false,
      "inputs": [
        {
          "indexed": true,
          "internalType": "address",
          "name": "sender",
          "type": "address"
        },
        {
          "indexed": true,
          "internalType": "uint256",
          "name": "totemId",
          "type": "uint256"
        },
        {
          "indexed": true,
          "internalType": "uint256",
          "name": "artifactId",
          "type": "uint256"
        }
      ],
      "name": "ArtifactAddedToTotem",
      "type": "event"
    },
    {
      "anonymous": false,
      "inputs": [
        {
          "indexed": true,
          "internalType": "address",
          "name": "previousOwner",
          "type": "address"
        },
        {
          "indexed": true,
          "internalType": "address",
          "name": "newOwner",
          "type": "address"
        }
      ],
      "name": "OwnershipTransferred",
      "type": "event"
    },
    {
      "anonymous": false,
      "inputs": [
        {
          "indexed": true,
          "internalType": "address",
          "name": "creator",
          "type": "address"
        },
        {
          "indexed": true,
          "internalType": "uint256",
          "name": "totemId",
          "type": "uint256"
        },
        {
          "indexed": false,
          "internalType": "uint256[]",
          "name": "artifactIds",
          "type": "uint256[]"
        }
      ],
      "name": "TotemCreated",
      "type": "event"
    },
    {
      "anonymous": false,
      "inputs": [
        {
          "indexed": true,
          "internalType": "uint256",
          "name": "totemId",
          "type": "uint256"
        },
        {
          "indexed": false,
          "internalType": "uint256",
          "name": "newPower",
          "type": "uint256"
        }
      ],
      "name": "TotemPowerOverridden",
      "type": "event"
    },
    {
      "anonymous": false,
      "inputs": [
        {
          "indexed": true,
          "internalType": "address",
          "name": "sender",
          "type": "address"
        },
        {
          "indexed": true,
          "internalType": "uint256",
          "name": "totemId",
          "type": "uint256"
        },
        {
          "indexed": false,
          "internalType": "uint256",
          "name": "magicSpent",
          "type": "uint256"
        },
        {
          "indexed": false,
          "internalType": "uint256",
          "name": "newPower",
          "type": "uint256"
        }
      ],
      "name": "TotemPoweredUp",
      "type": "event"
    },
    {
      "inputs": [
        {
          "internalType": "uint256",
          "name": "totemId",
          "type": "uint256"
        },
        {
          "internalType": "uint256",
          "name": "artifactId",
          "type": "uint256"
        }
      ],
      "name": "addArtifact",
      "outputs": [],
      "stateMutability": "nonpayable",
      "type": "function"
    },
    {
      "inputs": [
        {
          "internalType": "uint256",
          "name": "totemId",
          "type": "uint256"
        },
        {
          "internalType": "uint256",
          "name": "newPower",
          "type": "uint256"
        }
      ],
      "name": "adminSetPower",
      "outputs": [],
      "stateMutability": "nonpayable",
      "type": "function"
    },
    {
      "inputs": [
        {
          "internalType": "uint256",
          "name": "",
          "type": "uint256"
        }
      ],
      "name": "artifactToTotem",
      "outputs": [
        {
          "internalType": "uint256",
          "name": "",
          "type": "uint256"
        }
      ],
      "stateMutability": "view",
      "type": "function"
    },
    {
      "inputs": [],
      "name": "artifacts",
      "outputs": [
        {
          "internalType": "contract IArtifactCollection",
          "name": "",
          "type": "address"
        }
      ],
      "stateMutability": "view",
      "type": "function"
    },
    {
      "inputs": [
        {
          "internalType": "uint256[]",
          "name": "artifactIds",
          "type": "uint256[]"
        }
      ],
      "name": "createTotem",
      "outputs": [
        {
          "internalType": "uint256",
          "name": "",
          "type": "uint256"
        }
      ],
      "stateMutability": "nonpayable",
      "type": "function"
    },
    {
      "inputs": [
        {
          "internalType": "uint256",
          "name": "totemId",
          "type": "uint256"
        }
      ],
      "name": "getTotem",
      "outputs": [
        {
          "internalType": "uint256",
          "name": "id",
          "type": "uint256"
        },
        {
          "internalType": "address",
          "name": "creator",
          "type": "address"
        },
        {
          "internalType": "uint256",
          "name": "power",
          "type": "uint256"
        },
        {
          "internalType": "uint256",
          "name": "artifactCount",
          "type": "uint256"
        }
      ],
      "stateMutability": "view",
      "type": "function"
    },
    {
      "inputs": [
        {
          "internalType": "uint256",
          "name": "totemId",
          "type": "uint256"
        }
      ],
      "name": "getTotemArtifactIds",
      "outputs": [
        {
          "internalType": "uint256[]",
          "name": "",
          "type": "uint256[]"
        }
      ],
      "stateMutability": "view",
      "type": "function"
    },
    {
      "inputs": [],
      "name": "magic",
      "outputs": [
        {
          "internalType": "contract IMagicToken",
          "name": "",
          "type": "address"
        }
      ],
      "stateMutability": "view",
      "type": "function"
    },
    {
      "inputs": [],
      "name": "nextTotemId",
      "outputs": [
        {
          "internalType": "uint256",
          "name": "",
          "type": "uint256"
        }
      ],
      "stateMutability": "view",
      "type": "function"
    },
    {
      "inputs": [],
      "name": "owner",
      "outputs": [
        {
          "internalType": "address",
          "name": "",
          "type": "address"
        }
      ],
      "stateMutability": "view",
      "type": "function"
    },
    {
      "inputs": [
        {
          "internalType": "uint256",
          "name": "totemId",
          "type": "uint256"
        },
        {
          "internalType": "uint256",
          "name": "magicAmount",
          "type": "uint256"
        }
      ],
      "name": "powerUp",
      "outputs": [],
      "stateMutability": "nonpayable",
      "type": "function"
    },
    {
      "inputs": [],
      "name": "renounceOwnership",
      "outputs": [],
      "stateMutability": "nonpayable",
      "type": "function"
    },
    {
      "inputs": [
        {
          "internalType": "address",
          "name": "newOwner",
          "type": "address"
        }
      ],
      "name": "transferOwnership",
      "outputs": [],
      "stateMutability": "nonpayable",
      "type": "function"
    }
  ],
  "bytecode": "0x6080346100f757601f610c0138819003918201601f19168301916001600160401b038311848410176100fb578084926060946040528339810103126100f7576100478161010f565b61005f60406100586020850161010f565b930161010f565b60015f556001600160a01b03918216919082156100df57600180546001600160a01b0319808216861790925560405195919484929183167f8be0079c531659141344cd1fd0a4f28419497f9722a3daafe3b4186f6b6457e05f80a360016004551683600254161760025516906003541617600355610add90816101248239f35b604051631e4fbdf760e01b81525f6004820152602490fd5b5f80fd5b634e487b7160e01b5f52604160045260245ffd5b51906001600160a01b03821682036100f75756fe60806040818152600480361015610014575f80fd5b5f925f3560e01c9081630d854646146108b0575080632eee9feb14610888578063300f948314610665578063532483d2146105c657806366ccfb6e14610402578063715018a6146103a25780638da5cb5b14610375578063abe9dd631461034e578063bc460644146102ed578063c5dc0783146102d0578063da558e2d1461019a578063f2fde38b146101035763f7674a05146100af575f80fd5b346100ff5760203660031901126100ff5760809282913581526006602052209081549160018060a01b03600182015416916002600383015492015492815194855260208501528301526060820152f35b8280fd5b5090346100ff5760203660031901126100ff576001600160a01b0382358181169391929084900361019657610136610a7b565b8315610180575050600154826bffffffffffffffffffffffff60a01b821617600155167f8be0079c531659141344cd1fd0a4f28419497f9722a3daafe3b4186f6b6457e05f80a380f35b51631e4fbdf760e01b8152908101849052602490fd5b8480fd5b5090346100ff576101aa366108d3565b9290916101b5610a5a565b6101c182548410610a1b565b60025481516331a9108f60e11b8152838101869052602092916001600160a01b039084908390602490829085165afa9182156102c65786926003959492610212928b92610297575b50163314610962565b8688526005835261022681892054156109a3565b8188526006835260058189209361024089600287016109ef565b888a52528720550180549160018301809311610284575055337f4696cb13933e6ba82027c4aa7af3159c5f9484a89761946e941027974219ead78480a46001815580f35b634e487b7160e01b865260119052602485fd5b6102b8919250863d88116102bf575b6102b0818361090d565b810190610943565b905f610209565b503d6102a6565b83513d8a823e3d90fd5b50346100ff57826003193601126100ff5760209250549051908152f35b5090346100ff5760206103377f88d5dc7e031208b7fd463b9519f5256116a709712ba83d7e09dffa037b62953292610324366108d3565b92909561032f610a7b565b548610610a1b565b84865260068352816003828820015551908152a280f35b50346100ff5760203660031901126100ff5760209282913581526005845220549051908152f35b50503461039e578160031936011261039e5760015490516001600160a01b039091168152602090f35b5080fd5b83346103ff57806003193601126103ff576103bb610a7b565b600180546001600160a01b031981169091555f906001600160a01b03167f8be0079c531659141344cd1fd0a4f28419497f9722a3daafe3b4186f6b6457e08280a380f35b80fd5b50903461054357610412366108d3565b91909261041d610a5a565b82156105845761042f81548510610a1b565b5f60018060a01b0380600354168451906323b872dd60e01b825233858301523060248301528660448301528160648160209687945af1801561057a57610547575b5060035416803b15610543575f80916024865180948193630852cd8d60e31b83528a898401525af180156105395761050a575b50848652600681526003838720018054928584018094116104f75750829055825193845283015233917ffe96575493af4c91abe3c20c391f09b663c9afa5d20520df5ef97547a28a388f9190a36001815580f35b601190634e487b7160e01b5f525260245ffd5b90955067ffffffffffffffff81116105265782525f945f6104a3565b604182634e487b7160e01b5f525260245ffd5b84513d5f823e3d90fd5b5f80fd5b8281813d8311610573575b61055c818361090d565b81010312610543575180151503610543575f610470565b503d610552565b85513d5f823e3d90fd5b6020606492519162461bcd60e51b8352820152602060248201527f416d6f756e74206d7573742062652067726561746572207468616e207a65726f6044820152fd5b50346105435760209081600319360112610543578290355f52600682526002815f20018151928381835491828152019081935f52825f20905f5b818110610651575050508461061691038561090d565b825181815293518185018190528493840192915f5b82811061063a57505050500390f35b83518552869550938101939281019260010161062b565b825484529284019260019283019201610600565b503461054357602091826003193601126105435767ffffffffffffffff8235818111610543573660238201121561054357808401359182116105435760249360248201906005958460051b936024853692010111610543576106c5610a5a565b841561083a576002546001600160a01b03919082165f5b8781106107b4575050505080549560019160018801908189116104f757555f878152600689528681208881556001810180546001600160a01b031916331790556003810187905560020191905b86811061078c5750508551888152888101869052946001600160fb1b0310915061054390505782827fec8ead72e83bc4fcefc76a61ca109a08a01ce4924010dbb2e135b49be65ce473928688960137848133948101030190a360015f5551908152f35b80610799859289886108e9565b356107a481866109ef565b5f52828b5289895f205501610729565b6107bf8189886108e9565b3589516331a9108f60e11b815281878201528c818681875afa9081156108305760019392916107fb918f5f92610813575b505087163314610962565b5f528a8c5261080d8a5f2054156109a3565b016106dc565b6108299250803d106102bf576102b0818361090d565b8f8f6107f0565b8b513d5f823e3d90fd5b855162461bcd60e51b8152808301899052602260248201527f4d7573742070726f76696465206174206c65617374206f6e652061727469666160448201526118dd60f21b6064820152608490fd5b8234610543575f3660031901126105435760025490516001600160a01b039091168152602090f35b34610543575f366003190112610543576003546001600160a01b03168152602090f35b6040906003190112610543576004359060243590565b91908110156108f95760051b0190565b634e487b7160e01b5f52603260045260245ffd5b90601f8019910116810190811067ffffffffffffffff82111761092f57604052565b634e487b7160e01b5f52604160045260245ffd5b9081602091031261054357516001600160a01b03811681036105435790565b1561096957565b60405162461bcd60e51b81526020600482015260126024820152712737ba1030b93a34b330b1ba1037bbb732b960711b6044820152606490fd5b156109aa57565b60405162461bcd60e51b815260206004820152601960248201527f417274696661637420616c726561647920696e20746f74656d000000000000006044820152606490fd5b8054906801000000000000000082101561092f57600182018082558210156108f9575f5260205f200155565b15610a2257565b60405162461bcd60e51b815260206004820152601060248201526f125b9d985b1a59081d1bdd195b48125160821b6044820152606490fd5b60025f5414610a695760025f55565b604051633ee5aeb560e01b8152600490fd5b6001546001600160a01b03163303610a8f57565b60405163118cdaa760e01b8152336004820152602490fdfea264697066735822122005ce00bb8d1230ac379a555d82bcbddd2e7ff0b3666c04d6b1d48b1ee69e582e64736f6c63430008180033",
  "linkReferences": {},
  "deployedLinkReferences": {},
  "immutableReferences": {},
  "inputSourceName": "project/contracts/TotemManager.sol",
  "buildInfoId": "solc-0_8_24-23d83057b10f6083a0b1e7029094762c9cdfd476"
}