{
  "_format": "hh3-artifact-1",
  "contractName": "IslandMythos",
  "sourceName": "contracts/IslandMythos.sol",
  "abi": [
    {
      "inputs": [
        {
          "internalType": "address",
          "name": "admin_",
          "type": "address"
        }
      ],
      "stateMutability": "nonpayable",
      "type": "constructor"
    },
    {
      "inputs": [],
      "name": "AccessControlBadConfirmation",
      "type": "error"
    },
    {
      "inputs": [
        {
          "internalType": "address",
          "name": "account",
          "type": "address"
        },
        {
          "internalType": "bytes32",
          "name": "neededRole",
          "type": "bytes32"
        }
      ],
      "name": "AccessControlUnauthorizedAccount",
      "type": "error"
    },
    {
      "anonymous": false,
      "inputs": [
        {
          "indexed": false,
          "internalType": "string",
          "name": "newLoreURI",
          "type": "string"
        },
        {
          "indexed": true,
          "internalType": "address",
          "name": "editor",
          "type": "address"
        }
      ],
      "name": "LoreURIUpdated",
      "type": "event"
    },
    {
      "anonymous": false,
      "inputs": [
        {
          "indexed": false,
          "internalType": "string",
          "name": "islandName",
          "type": "string"
        },
        {
          "indexed": false,
          "internalType": "string",
          "name": "shortTheme",
          "type": "string"
        },
        {
          "indexed": false,
          "internalType": "string",
          "name": "artDirection",
          "type": "string"
        },
        {
          "indexed": false,
          "internalType": "string",
          "name": "coreMyth",
          "type": "string"
        },
        {
          "indexed": false,
          "internalType": "string",
          "name": "loreURI",
          "type": "string"
        },
        {
          "indexed": true,
          "internalType": "address",
          "name": "editor",
          "type": "address"
        }
      ],
      "name": "MythosInitialized",
      "type": "event"
    },
    {
      "anonymous": false,
      "inputs": [
        {
          "indexed": true,
          "internalType": "address",
          "name": "admin",
          "type": "address"
        }
      ],
      "name": "MythosLocked",
      "type": "event"
    },
    {
      "anonymous": false,
      "inputs": [
        {
          "indexed": false,
          "internalType": "string",
          "name": "islandName",
          "type": "string"
        },
        {
          "indexed": false,
          "internalType": "string",
          "name": "shortTheme",
          "type": "string"
        },
        {
          "indexed": false,
          "internalType": "string",
          "name": "artDirection",
          "type": "string"
        },
        {
          "indexed": false,
          "internalType": "string",
          "name": "coreMyth",
          "type": "string"
        },
        {
          "indexed": true,
          "internalType": "address",
          "name": "editor",
          "type": "address"
        }
      ],
      "name": "MythosUpdated",
      "type": "event"
    },
    {
      "anonymous": false,
      "inputs": [
        {
          "indexed": true,
          "internalType": "bytes32",
          "name": "role",
          "type": "bytes32"
        },
        {
          "indexed": true,
          "internalType": "bytes32",
          "name": "previousAdminRole",
          "type": "bytes32"
        },
        {
          "indexed": true,
          "internalType": "bytes32",
          "name": "newAdminRole",
          "type": "bytes32"
        }
      ],
      "name": "RoleAdminChanged",
      "type": "event"
    },
    {
      "anonymous": false,
      "inputs": [
        {
          "indexed": true,
          "internalType": "bytes32",
          "name": "role",
          "type": "bytes32"
        },
        {
          "indexed": true,
          "internalType": "address",
          "name": "account",
          "type": "address"
        },
        {
          "indexed": true,
          "internalType": "address",
          "name": "sender",
          "type": "address"
        }
      ],
      "name": "RoleGranted",
      "type": "event"
    },
    {
      "anonymous": false,
      "inputs": [
        {
          "indexed": true,
          "internalType": "bytes32",
          "name": "role",
          "type": "bytes32"
        },
        {
          "indexed": true,
          "internalType": "address",
          "name": "account",
          "type": "address"
        },
        {
          "indexed": true,
          "internalType": "address",
          "name": "sender",
          "type": "address"
        }
      ],
      "name": "RoleRevoked",
      "type": "event"
    },
    {
      "inputs": [],
      "name": "DEFAULT_ADMIN_ROLE",
      "outputs": [
        {
          "internalType": "bytes32",
          "name": "",
          "type": "bytes32"
        }
      ],
      "stateMutability": "view",
      "type": "function"
    },
    {
      "inputs": [],
      "name": "MYTHOS_EDITOR_ROLE",
      "outputs": [
        {
          "internalType": "bytes32",
          "name": "",
          "type": "bytes32"
        }
      ],
      "stateMutability": "view",
      "type": "function"
    },
    {
      "inputs": [],
      "name": "artDirection",
      "outputs": [
        {
          "internalType": "string",
          "name": "",
          "type": "string"
        }
      ],
      "stateMutability": "view",
      "type": "function"
    },
    {
      "inputs": [],
      "name": "coreMyth",
      "outputs": [
        {
          "internalType": "string",
          "name": "",
          "type": "string"
        }
      ],
      "stateMutability": "view",
      "type": "function"
    },
    {
      "inputs": [],
      "name": "getMythos",
      "outputs": [
        {
          "components": [
            {
              "internalType": "string",
              "name": "islandName",
              "type": "string"
            },
            {
              "internalType": "string",
              "name": "shortTheme",
              "type": "string"
            },
            {
              "internalType": "string",
              "name": "artDirection",
              "type": "string"
            },
            {
              "internalType": "string",
              "name": "coreMyth",
              "type": "string"
            },
            {
              "internalType": "string",
              "name": "loreURI",
              "type": "string"
            },
            {
              "internalType": "bool",
              "name": "initialized",
              "type": "bool"
            },
            {
              "internalType": "bool",
              "name": "locked",
              "type": "bool"
            }
          ],
          "internalType": "struct IslandMythos.MythosData",
          "name": "",
          "type": "tuple"
        }
      ],
      "stateMutability": "view",
      "type": "function"
    },
    {
      "inputs": [
        {
          "internalType": "bytes32",
          "name": "role",
          "type": "bytes32"
        }
      ],
      "name": "getRoleAdmin",
      "outputs": [
        {
          "internalType": "bytes32",
          "name": "",
          "type": "bytes32"
        }
      ],
      "stateMutability": "view",
      "type": "function"
    },
    {
      "inputs": [
        {
          "internalType": "bytes32",
          "name": "role",
          "type": "bytes32"
        },
        {
          "internalType": "address",
          "name": "account",
          "type": "address"
        }
      ],
      "name": "grantRole",
      "outputs": [],
      "stateMutability": "nonpayable",
      "type": "function"
    },
    {
      "inputs": [
        {
          "internalType": "bytes32",
          "name": "role",
          "type": "bytes32"
        },
        {
          "internalType": "address",
          "name": "account",
          "type": "address"
        }
      ],
      "name": "hasRole",
      "outputs": [
        {
          "internalType": "bool",
          "name": "",
          "type": "bool"
        }
      ],
      "stateMutability": "view",
      "type": "function"
    },
    {
      "inputs": [
        {
          "internalType": "string",
          "name": "islandName",
          "type": "string"
        },
        {
          "internalType": "string",
          "name": "shortTheme",
          "type": "string"
        },
        {
          "internalType": "string",
          "name": "artDirection",
          "type": "string"
        },
        {
          "internalType": "string",
          "name": "coreMyth",
          "type": "string"
        },
        {
          "internalType": "string",
          "name": "loreURI",
          "type": "string"
        }
      ],
      "name": "initializeMythos",
      "outputs": [],
      "stateMutability": "nonpayable",
      "type": "function"
    },
    {
      "inputs": [],
      "name": "isInitialized",
      "outputs": [
        {
          "internalType": "bool",
          "name": "",
          "type": "bool"
        }
      ],
      "stateMutability": "view",
      "type": "function"
    },
    {
      "inputs": [],
      "name": "isLocked",
      "outputs": [
        {
          "internalType": "bool",
          "name": "",
          "type": "bool"
        }
      ],
      "stateMutability": "view",
      "type": "function"
    },
    {
      "inputs": [],
      "name": "islandName",
      "outputs": [
        {
          "internalType": "string",
          "name": "",
          "type": "string"
        }
      ],
      "stateMutability": "view",
      "type": "function"
    },
    {
      "inputs": [],
      "name": "lockMythos",
      "outputs": [],
      "stateMutability": "nonpayable",
      "type": "function"
    },
    {
      "inputs": [],
      "name": "loreURI",
      "outputs": [
        {
          "internalType": "string",
          "name": "",
          "type": "string"
        }
      ],
      "stateMutability": "view",
      "type": "function"
    },
    {
      "inputs": [
        {
          "internalType": "bytes32",
          "name": "role",
          "type": "bytes32"
        },
        {
          "internalType": "address",
          "name": "callerConfirmation",
          "type": "address"
        }
      ],
      "name": "renounceRole",
      "outputs": [],
      "stateMutability": "nonpayable",
      "type": "function"
    },
    {
      "inputs": [
        {
          "internalType": "bytes32",
          "name": "role",
          "type": "bytes32"
        },
        {
          "internalType": "address",
          "name": "account",
          "type": "address"
        }
      ],
      "name": "revokeRole",
      "outputs": [],
      "stateMutability": "nonpayable",
      "type": "function"
    },
    {
      "inputs": [],
      "name": "shortTheme",
      "outputs": [
        {
          "internalType": "string",
          "name": "",
          "type": "string"
        }
      ],
      "stateMutability": "view",
      "type": "function"
    },
    {
      "inputs": [
        {
          "internalType": "bytes4",
          "name": "interfaceId",
          "type": "bytes4"
        }
      ],
      "name": "supportsInterface",
      "outputs": [
        {
          "internalType": "bool",
          "name": "",
          "type": "bool"
        }
      ],
      "stateMutability": "view",
      "type": "function"
    },
    {
      "inputs": [
        {
          "internalType": "string",
          "name": "newLoreURI",
          "type": "string"
        }
      ],
      "name": "updateLoreURI",
      "outputs": [],
      "stateMutability": "nonpayable",
      "type": "function"
    },
    {
      "inputs": [
        {
          "internalType": "string",
          "name": "newIslandName",
          "type": "string"
        },
        {
          "internalType": "string",
          "name": "newShortTheme",
          "type": "string"
        },
        {
          "internalType": "string",
          "name": "newArtDirection",
          "type": "string"
        },
        {
          "internalType": "string",
          "name": "newCoreMyth",
          "type": "string"
        }
      ],
      "name": "updateMythos",
      "outputs": [],
      "stateMutability": "nonpayable",
      "type": "function"
    }
  ],
  "bytecode": "0x6080346200007c57601f62001cce38819003918201601f19168301916001600160401b0383118484101762000080578084926020946040528339810103126200007c57516001600160a01b03811681036200007c5780620000646200006b9262000094565b5062000104565b50604051611ae99081620001a58239f35b5f80fd5b634e487b7160e01b5f52604160045260245ffd5b6001600160a01b03165f8181525f8051602062001cae833981519152602052604090205460ff16620000ff575f8181525f8051602062001cae83398151915260205260408120805460ff191660011790553391905f8051602062001c8e8339815191528180a4600190565b505f90565b6001600160a01b03165f8181527f8c9f8eff52d5b077aa3088bd51af60c2ed58a98f4a6dfa71edd9af613a43f8b760205260409020547f3bcee98800d93bfcb35216137b9a62ce10984c9b6e0b7a5e54e16260eb323abe919060ff166200019e57815f525f60205260405f20815f5260205260405f20600160ff1982541617905533915f8051602062001c8e8339815191525f80a4600190565b50505f9056fe60806040908082526004361015610014575f80fd5b5f3560e01c90816301ffc9a71461123d575080630e8e313814610c21578063170ea1de14610bfd5780631d9d256e1461072f578063248a9ca31461070457806329aa4f2e146105725780632d6c4b76146104975780632f2ff15d1461047a57806332300719146102ec57806336568abe146102b1578063392e53cd1461028e57806377cf9d821461026a5780638c31cef41461024657806391d148541461020e578063a217fddf146101f4578063a4e2d634146101ce578063bfac2335146101aa578063d547741f14610178578063d7bb2d191461013e5763e9fb297d146100fa575f80fd5b3461013a575f36600319011261013a578051610136916101248261011d816117c7565b038361133c565b519182916020835260208301906112bd565b0390f35b5f80fd5b503461013a575f36600319011261013a57602090517f3bcee98800d93bfcb35216137b9a62ce10984c9b6e0b7a5e54e16260eb323abe8152f35b503461013a5760016101a8916101a3610190366112fb565b939092835f525f6020525f200154611904565b6119a1565b005b503461013a575f36600319011261013a578051610136916101248261011d816116d7565b503461013a575f36600319011261013a5760209060ff60065460081c1690519015158152f35b503461013a575f36600319011261013a57602090515f8152f35b503461013a57602090610220366112fb565b905f525f8352815f209060018060a01b03165f52825260ff815f20541690519015158152f35b503461013a575f36600319011261013a578051610136916101248261011d8161165e565b503461013a575f36600319011261013a578051610136916101248261011d8161174f565b503461013a575f36600319011261013a5760209060ff6006541690519015158152f35b503461013a576102c0366112fb565b90336001600160a01b038316036102db576101a892506119a1565b825163334bd91960e11b8152600490fd5b503461013a5760208060031936011261013a576001600160401b0360043581811161013a5761031f903690600401611290565b92909161032a61188b565b61033860ff6006541661183f565b8311610466576103528361034d6005546113a2565b611546565b5f90601f84116001146103cf57509082936103a7847f1352a0bb8164cd417e7160a3894d424ec7b0cab43768f8d5285486713b110adc956103bf955f916103c4575b508160011b915f199060031b1c19161790565b6005555b5191829160208352339560208401916115a0565b0390a2005b90508401355f610394565b90601f19841660055f525f80516020611a14833981519152925f905b82821061044e575050918495917f1352a0bb8164cd417e7160a3894d424ec7b0cab43768f8d5285486713b110adc956103bf959410610435575b5050600185811b016005556103ab565b8301355f19600388901b60f8161c191690555f80610425565b806001859682949689013581550195019301906103eb565b634e487b7160e01b5f52604160045260245ffd5b503461013a5760016101a891610492610190366112fb565b611925565b503461013a575f36600319011261013a575f80525f602052805f20335f5260205260ff815f2054161561055657600654906104d460ff831661183f565b60ff8260081c166105135761ff0019821661010017600655337f78d2bca82a04f56ae3503a6bd4c9d36c1c0938d6f63273a4611605ea2fd3a15a5f80a2005b5162461bcd60e51b815260206004820152601c60248201527f49736c616e644d7974686f733a20616c7265616479206c6f636b6564000000006044820152606490fd5b5163e2517d3f60e01b81523360048201525f6024820152604490fd5b503461013a575f36600319011261013a5780519061058f82611321565b6060918281528260208201528282820152828082015282608082015260a081015f905260c0015f90528051906105c482611321565b8051806105d08161165e565b036105db908261133c565b8252805192836105ea816116d7565b036105f5908561133c565b60208301938452815191826106098161174f565b03610614908461133c565b808401928352805180610626816115c0565b03610631908261133c565b82850190815281519081610644816117c7565b0361064f908361133c565b608086019182526006549360a087019560ff86161515875260c088019560081c60ff1615158652845198899860208a525160208a0160e090526101008a01610696916112bd565b905190601f1996878b830301908b01526106af916112bd565b9051918589830301908901526106c4916112bd565b905190838782030160808801526106da916112bd565b9051918582030160a08601526106ef916112bd565b9151151560c084015251151560e08301520390f35b503461013a57602036600319011261013a576020906004355f525f82526001815f2001549051908152f35b503461013a57608036600319011261013a576001600160401b039060043582811161013a57610762903690600401611290565b92602490813581811161013a5761077d903690600401611290565b9060443583811161013a57610796903690600401611290565b92909160643585811161013a576107b1903690600401611290565b9790996107bc61188b565b60ff6006546107cc82821661183f565b60081c16610bba5780610ae8575b505081610a12575b50508161093c575b50508261085b575b837f66ce9e5064760fb2abfbb31f745f61c22fc4a58d528a8d595ba641f399e691e36108478251926080845261083a61082d6080860161165e565b85810360208701526116d7565b908482039085015261174f565b918083036060820152806103bf33946115c0565b82116109295750610876816108716004546113a2565b6114ec565b5f601f82116001146108bc5781906108a493945f926108b1575b50508160011b915f199060031b1c19161790565b6004555b805f80806107f2565b013590505f80610890565b601f1982169360045f525f80516020611a94833981519152915f5b86811061091157508360019596106108f8575b505050811b016004556108a8565b01355f19600384901b60f8161c191690555f80806108ea565b909260206001819286860135815501940191016108d7565b634e487b7160e01b5f9081526041600452fd5b8282116109ff57610957826109526003546113a2565b611492565b5f90601f831160011461098f5761098492915f91836108b15750508160011b915f199060031b1c19161790565b6003555b5f806107ea565b601f1983169160035f525f80516020611a54833981519152925f5b8181106109e757509084600195949392106109ce575b505050811b01600355610988565b01355f19600384901b60f8161c191690555f80806109c0565b919360206001819287870135815501950192016109aa565b83634e487b7160e01b5f5260416004525ffd5b848211610ad557610a2d82610a286002546113a2565b611438565b5f90601f8311600114610a6557610a5a92915f91836108b15750508160011b915f199060031b1c19161790565b6002555b5f806107e2565b601f1983169160025f525f80516020611a34833981519152925f5b818110610abd5750908460019594939210610aa4575b505050811b01600255610a5e565b01355f19600384901b60f8161c191690555f8080610a96565b91936020600181928787013581550195019201610a80565b85634e487b7160e01b5f5260416004525ffd5b868111610ba757600191610b0582610b0085546113a2565b6113da565b5f90601f8311600114610b3c57610b3292915f91836108b15750508160011b915f199060031b1c19161790565b90555b5f806107da565b5f8481528493925f80516020611a748339815191529291601f198516905b818110610b8f57508411610b76575b505050811b019055610b35565b01355f19600384901b60f8161c191690555f8080610b69565b82840135855587969094019360209283019201610b5a565b87634e487b7160e01b5f5260416004525ffd5b895162461bcd60e51b815260206004820152601e818a01527f49736c616e644d7974686f733a206d7974686f73206973206c6f636b656400006044820152606490fd5b503461013a575f36600319011261013a578051610136916101248261011d816115c0565b503461013a5760a036600319011261013a576004356001600160401b03811161013a57610c52903690600401611290565b6024356001600160401b03811161013a57610c71903690600401611290565b90936044356001600160401b03811161013a57610c92903690600401611290565b91906064356001600160401b03811161013a57610cb3903690600401611290565b9290936084356001600160401b03811161013a57610cd5903690600401611290565b999096610ce061188b565b60ff600654166111ef578351610cf581611321565b610d00368b8d61135d565b8152610d0d36838561135d565b60208201908152610d1f36868961135d565b86830152610d2e36898b61135d565b6060830152610d3e368e8c61135d565b6080830152600160a08301525f60c083015281518051906001600160401b03821161046657610d7282610b006001546113a2565b602090601f831160011461117b57610da092915f9183610fa85750508160011b915f199060031b1c19161790565b6001555b518051906001600160401b03821161046657610dc582610a286002546113a2565b602090601f831160011461110757610df392915f9183610fa85750508160011b915f199060031b1c19161790565b6002555b848101518051906001600160401b03821161046657610e1b826109526003546113a2565b602090601f831160011461109357610e4992915f9183610fa85750508160011b915f199060031b1c19161790565b6003555b60608101518051906001600160401b03821161046657610e72826108716004546113a2565b602090601f831160011461102357610ea092915f9183610fa85750508160011b915f199060031b1c19161790565b6004555b60808101518051906001600160401b03821161046657610ec98261034d6005546113a2565b602090601f8311600114610fb357610ef792915f9183610fa85750508160011b915f199060031b1c19161790565b6005555b60a08101511515906006549060c00151151560081b61ff00169160ff169061ffff191617176006558351998a9960a08b5260a08b0190610f3a926115a0565b9089820360208b0152610f4c926115a0565b9187830390880152610f5d926115a0565b908482036060860152610f6f926115a0565b82810360808401523394610f82926115a0565b037ff757cab630cc013410ef72c1a4d46cd9f7bea8aaff27a23ab800a04ad2134e2991a2005b015190505f80610890565b90601f1983169160055f525f80516020611a14833981519152925f5b81811061100b5750908460019594939210610ff3575b505050811b01600555610efb565b01515f1960f88460031b161c191690555f8080610fe5565b92936020600181928786015181550195019301610fcf565b90601f1983169160045f525f80516020611a94833981519152925f5b81811061107b5750908460019594939210611063575b505050811b01600455610ea4565b01515f1960f88460031b161c191690555f8080611055565b9293602060018192878601518155019501930161103f565b919060035f525f80516020611a54833981519152905f935b601f19841685106110ec576001945083601f198116106110d4575b505050811b01600355610e4d565b01515f1960f88460031b161c191690555f80806110c6565b818101518355602094850194600190930192909101906110ab565b919060025f525f80516020611a34833981519152905f935b601f1984168510611160576001945083601f19811610611148575b505050811b01600255610df7565b01515f1960f88460031b161c191690555f808061113a565b8181015183556020948501946001909301929091019061111f565b919060015f525f80516020611a74833981519152905f935b601f19841685106111d4576001945083601f198116106111bc575b505050811b01600155610da4565b01515f1960f88460031b161c191690555f80806111ae565b81810151835560209485019460019093019290910190611193565b835162461bcd60e51b815260206004820152602160248201527f49736c616e644d7974686f733a20616c726561647920696e697469616c697a656044820152601960fa1b6064820152608490fd5b3461013a57602036600319011261013a576004359063ffffffff60e01b821680920361013a57602091637965db0b60e01b811490811561127f575b5015158152f35b6301ffc9a760e01b14905083611278565b9181601f8401121561013a578235916001600160401b03831161013a576020838186019501011161013a57565b91908251928382525f5b8481106112e7575050825f602080949584010152601f8019910116010190565b6020818301810151848301820152016112c7565b604090600319011261013a57600435906024356001600160a01b038116810361013a5790565b60e081019081106001600160401b0382111761046657604052565b90601f801991011681019081106001600160401b0382111761046657604052565b9291926001600160401b0382116104665760405191611386601f8201601f19166020018461133c565b82948184528183011161013a578281602093845f960137010152565b90600182811c921680156113d0575b60208310146113bc57565b634e487b7160e01b5f52602260045260245ffd5b91607f16916113b1565b90601f82116113e7575050565b60019160015f525f80516020611a74833981519152906020601f840160051c8301931061142e575b601f0160051c01905b81811061142457505050565b5f81558201611418565b909150819061140f565b601f8111611444575050565b60025f525f80516020611a34833981519152906020601f840160051c83019310611488575b601f0160051c01905b81811061147d575050565b5f8155600101611472565b9091508190611469565b601f811161149e575050565b60035f525f80516020611a54833981519152906020601f840160051c830193106114e2575b601f0160051c01905b8181106114d7575050565b5f81556001016114cc565b90915081906114c3565b601f81116114f8575050565b60045f525f80516020611a94833981519152906020601f840160051c8301931061153c575b601f0160051c01905b818110611531575050565b5f8155600101611526565b909150819061151d565b601f8111611552575050565b60055f525f80516020611a14833981519152906020601f840160051c83019310611596575b601f0160051c01905b81811061158b575050565b5f8155600101611580565b9091508190611577565b908060209392818452848401375f828201840152601f01601f1916010190565b6004545f92916115cf826113a2565b8082529160209060019081811690811561163957506001146115f2575b50505050565b9293945060045f525f80516020611a94833981519152925f935b85851061162657505050602092500101905f8080806115ec565b805485850184015293820193810161160c565b92505050602093945060ff929192191683830152151560051b0101905f8080806115ec565b905f91600190600154611670816113a2565b808352926020916001811690811561163957506001146116905750505050565b9293945060015f525f80516020611a74833981519152925f935b8585106116c457505050602092500101905f8080806115ec565b80548585018401529382019381016116aa565b6002545f92916116e6826113a2565b8082529160209060019081811690811561163957506001146117085750505050565b9293945060025f525f80516020611a34833981519152925f935b85851061173c57505050602092500101905f8080806115ec565b8054858501840152938201938101611722565b6003545f929161175e826113a2565b8082529160209060019081811690811561163957506001146117805750505050565b9293945060035f525f80516020611a54833981519152925f935b8585106117b457505050602092500101905f8080806115ec565b805485850184015293820193810161179a565b6005545f92916117d6826113a2565b8082529160209060019081811690811561163957506001146117f85750505050565b9293945060055f525f80516020611a14833981519152925f935b85851061182c57505050602092500101905f8080806115ec565b8054858501840152938201938101611812565b1561184657565b60405162461bcd60e51b815260206004820152601d60248201527f49736c616e644d7974686f733a206e6f7420696e697469616c697a65640000006044820152606490fd5b335f9081527f8c9f8eff52d5b077aa3088bd51af60c2ed58a98f4a6dfa71edd9af613a43f8b760205260409020547f3bcee98800d93bfcb35216137b9a62ce10984c9b6e0b7a5e54e16260eb323abe9060ff16156118e65750565b6044906040519063e2517d3f60e01b82523360048301526024820152fd5b805f525f60205260405f20335f5260205260ff60405f205416156118e65750565b90815f525f60205260405f209060018060a01b031690815f5260205260ff60405f205416155f1461199b57815f525f60205260405f20815f5260205260405f20600160ff1982541617905533917f2f8788117e7eff1d82e926ec794901d17c78024a50270940304540a733656f0d5f80a4600190565b50505f90565b90815f525f60205260405f209060018060a01b031690815f5260205260ff60405f2054165f1461199b57815f525f60205260405f20815f5260205260405f2060ff19815416905533917ff6391f5c32d9c69d2a47ea670b442974b53935d1edc7fd64eb21e047a839171b5f80a460019056fe036b6384b5eca791c62761152d0c79bb0604c104a5fb6f4eb0703f3154bb3db0405787fa12a823e0f2b7631cc41b3ba8828b3321ca811111fa75cd3aa3bb5acec2575a0e9e593c00f959f8c92f12db2869c3395a3b0502d05e2516446f71f85bb10e2d527612073b26eecdfd717e6a320cf44b4afac2b0732d9fcbe2b7fa0cf68a35acfbc15ff81a39ae7d344fd709f28e8600b4aa8c65c6b64bfe7fe36bd19ba26469706673582212207aa44ca7f33f3c280e2a940b2719ea238b4dd75b5135675433b6f2c2abc03f7164736f6c634300081800332f8788117e7eff1d82e926ec794901d17c78024a50270940304540a733656f0dad3228b676f7d3cd4284a5443f17f1962b36e491b30a40b2405849e597ba5fb5",
  "linkReferences": {},
  "deployedLinkReferences": {},
  "immutableReferences": {},
  "inputSourceName": "project/contracts/IslandMythos.sol",
  "buildInfoId": "solc-0_8_24-6e086111097a96c1a35e2f780bbacc2c83202f49"
}