{
  "_format": "hh3-artifact-1",
  "contractName": "TribeManager",
  "sourceName": "contracts/TribeManager.sol",
  "abi": [
    {
      "inputs": [
        {
          "internalType": "address",
          "name": "owner_",
          "type": "address"
        },
        {
          "internalType": "address",
          "name": "artifactCollection",
          "type": "address"
        }
      ],
      "stateMutability": "nonpayable",
      "type": "constructor"
    },
    {
      "inputs": [
        {
          "internalType": "address",
          "name": "owner",
          "type": "address"
        }
      ],
      "name": "OwnableInvalidOwner",
      "type": "error"
    },
    {
      "inputs": [
        {
          "internalType": "address",
          "name": "account",
          "type": "address"
        }
      ],
      "name": "OwnableUnauthorizedAccount",
      "type": "error"
    },
    {
      "inputs": [],
      "name": "ReentrancyGuardReentrantCall",
      "type": "error"
    },
    {
      "anonymous": false,
      "inputs": [
        {
          "indexed": true,
          "internalType": "uint256",
          "name": "requestId",
          "type": "uint256"
        },
        {
          "indexed": true,
          "internalType": "uint256",
          "name": "tribeId",
          "type": "uint256"
        },
        {
          "indexed": true,
          "internalType": "address",
          "name": "applicant",
          "type": "address"
        }
      ],
      "name": "JoinApproved",
      "type": "event"
    },
    {
      "anonymous": false,
      "inputs": [
        {
          "indexed": true,
          "internalType": "uint256",
          "name": "requestId",
          "type": "uint256"
        },
        {
          "indexed": true,
          "internalType": "uint256",
          "name": "tribeId",
          "type": "uint256"
        },
        {
          "indexed": true,
          "internalType": "address",
          "name": "applicant",
          "type": "address"
        }
      ],
      "name": "JoinRejected",
      "type": "event"
    },
    {
      "anonymous": false,
      "inputs": [
        {
          "indexed": true,
          "internalType": "uint256",
          "name": "requestId",
          "type": "uint256"
        },
        {
          "indexed": true,
          "internalType": "uint256",
          "name": "tribeId",
          "type": "uint256"
        },
        {
          "indexed": true,
          "internalType": "address",
          "name": "applicant",
          "type": "address"
        },
        {
          "indexed": false,
          "internalType": "uint256",
          "name": "initiationArtifactId",
          "type": "uint256"
        }
      ],
      "name": "JoinRequested",
      "type": "event"
    },
    {
      "anonymous": false,
      "inputs": [
        {
          "indexed": true,
          "internalType": "uint256",
          "name": "tribeId",
          "type": "uint256"
        },
        {
          "indexed": true,
          "internalType": "address",
          "name": "member",
          "type": "address"
        },
        {
          "indexed": true,
          "internalType": "uint256",
          "name": "tokenId",
          "type": "uint256"
        }
      ],
      "name": "MemberArtifactMinted",
      "type": "event"
    },
    {
      "anonymous": false,
      "inputs": [
        {
          "indexed": true,
          "internalType": "address",
          "name": "previousOwner",
          "type": "address"
        },
        {
          "indexed": true,
          "internalType": "address",
          "name": "newOwner",
          "type": "address"
        }
      ],
      "name": "OwnershipTransferred",
      "type": "event"
    },
    {
      "anonymous": false,
      "inputs": [
        {
          "indexed": true,
          "internalType": "uint256",
          "name": "tribeId",
          "type": "uint256"
        },
        {
          "indexed": false,
          "internalType": "string",
          "name": "name",
          "type": "string"
        },
        {
          "indexed": true,
          "internalType": "address",
          "name": "leader",
          "type": "address"
        },
        {
          "indexed": false,
          "internalType": "bool",
          "name": "requiresApproval",
          "type": "bool"
        }
      ],
      "name": "TribeCreated",
      "type": "event"
    },
    {
      "anonymous": false,
      "inputs": [
        {
          "indexed": true,
          "internalType": "uint256",
          "name": "tribeId",
          "type": "uint256"
        },
        {
          "indexed": true,
          "internalType": "address",
          "name": "newLeader",
          "type": "address"
        }
      ],
      "name": "TribeLeaderUpdated",
      "type": "event"
    },
    {
      "anonymous": false,
      "inputs": [
        {
          "indexed": true,
          "internalType": "uint256",
          "name": "requestId",
          "type": "uint256"
        },
        {
          "indexed": true,
          "internalType": "address",
          "name": "voter",
          "type": "address"
        },
        {
          "indexed": false,
          "internalType": "bool",
          "name": "approved",
          "type": "bool"
        },
        {
          "indexed": false,
          "internalType": "uint256",
          "name": "approvalCount",
          "type": "uint256"
        },
        {
          "indexed": false,
          "internalType": "uint256",
          "name": "rejectionCount",
          "type": "uint256"
        }
      ],
      "name": "VoteCast",
      "type": "event"
    },
    {
      "inputs": [
        {
          "internalType": "uint256",
          "name": "tribeId",
          "type": "uint256"
        },
        {
          "internalType": "address",
          "name": "member",
          "type": "address"
        }
      ],
      "name": "addMemberDirectly",
      "outputs": [],
      "stateMutability": "nonpayable",
      "type": "function"
    },
    {
      "inputs": [
        {
          "internalType": "uint256",
          "name": "requestId",
          "type": "uint256"
        }
      ],
      "name": "approveJoinRequest",
      "outputs": [],
      "stateMutability": "nonpayable",
      "type": "function"
    },
    {
      "inputs": [],
      "name": "artifacts",
      "outputs": [
        {
          "internalType": "contract IArtifactCollection",
          "name": "",
          "type": "address"
        }
      ],
      "stateMutability": "view",
      "type": "function"
    },
    {
      "inputs": [
        {
          "internalType": "string",
          "name": "name",
          "type": "string"
        },
        {
          "internalType": "address",
          "name": "leader",
          "type": "address"
        },
        {
          "internalType": "bool",
          "name": "requiresApproval",
          "type": "bool"
        },
        {
          "internalType": "uint256",
          "name": "quorumThreshold",
          "type": "uint256"
        }
      ],
      "name": "createTribe",
      "outputs": [
        {
          "internalType": "uint256",
          "name": "",
          "type": "uint256"
        }
      ],
      "stateMutability": "nonpayable",
      "type": "function"
    },
    {
      "inputs": [
        {
          "internalType": "uint256",
          "name": "requestId",
          "type": "uint256"
        }
      ],
      "name": "getJoinRequest",
      "outputs": [
        {
          "internalType": "uint256",
          "name": "tribeId",
          "type": "uint256"
        },
        {
          "internalType": "address",
          "name": "applicant",
          "type": "address"
        },
        {
          "internalType": "uint256",
          "name": "initiationArtifactId",
          "type": "uint256"
        },
        {
          "internalType": "bool",
          "name": "approved",
          "type": "bool"
        },
        {
          "internalType": "bool",
          "name": "processed",
          "type": "bool"
        },
        {
          "internalType": "uint256",
          "name": "approvalCount",
          "type": "uint256"
        },
        {
          "internalType": "uint256",
          "name": "rejectionCount",
          "type": "uint256"
        }
      ],
      "stateMutability": "view",
      "type": "function"
    },
    {
      "inputs": [
        {
          "internalType": "uint256",
          "name": "tribeId",
          "type": "uint256"
        }
      ],
      "name": "getTribe",
      "outputs": [
        {
          "internalType": "string",
          "name": "name",
          "type": "string"
        },
        {
          "internalType": "address",
          "name": "leader",
          "type": "address"
        },
        {
          "internalType": "bool",
          "name": "requiresApproval",
          "type": "bool"
        },
        {
          "internalType": "bool",
          "name": "active",
          "type": "bool"
        },
        {
          "internalType": "uint256",
          "name": "quorumThreshold",
          "type": "uint256"
        }
      ],
      "stateMutability": "view",
      "type": "function"
    },
    {
      "inputs": [
        {
          "internalType": "uint256",
          "name": "tribeId",
          "type": "uint256"
        }
      ],
      "name": "getTribeMemberCount",
      "outputs": [
        {
          "internalType": "uint256",
          "name": "count",
          "type": "uint256"
        }
      ],
      "stateMutability": "view",
      "type": "function"
    },
    {
      "inputs": [
        {
          "internalType": "address",
          "name": "",
          "type": "address"
        }
      ],
      "name": "hasCreatedInitialArtifact",
      "outputs": [
        {
          "internalType": "bool",
          "name": "",
          "type": "bool"
        }
      ],
      "stateMutability": "view",
      "type": "function"
    },
    {
      "inputs": [
        {
          "internalType": "uint256",
          "name": "",
          "type": "uint256"
        },
        {
          "internalType": "address",
          "name": "",
          "type": "address"
        }
      ],
      "name": "hasVotedOnRequest",
      "outputs": [
        {
          "internalType": "bool",
          "name": "",
          "type": "bool"
        }
      ],
      "stateMutability": "view",
      "type": "function"
    },
    {
      "inputs": [
        {
          "internalType": "address",
          "name": "",
          "type": "address"
        }
      ],
      "name": "isApprovedInAnyTribe",
      "outputs": [
        {
          "internalType": "bool",
          "name": "",
          "type": "bool"
        }
      ],
      "stateMutability": "view",
      "type": "function"
    },
    {
      "inputs": [
        {
          "internalType": "uint256",
          "name": "",
          "type": "uint256"
        },
        {
          "internalType": "address",
          "name": "",
          "type": "address"
        }
      ],
      "name": "isMember",
      "outputs": [
        {
          "internalType": "bool",
          "name": "",
          "type": "bool"
        }
      ],
      "stateMutability": "view",
      "type": "function"
    },
    {
      "inputs": [
        {
          "internalType": "uint256",
          "name": "tribeId",
          "type": "uint256"
        },
        {
          "internalType": "address",
          "name": "account",
          "type": "address"
        }
      ],
      "name": "isTribeMember",
      "outputs": [
        {
          "internalType": "bool",
          "name": "",
          "type": "bool"
        }
      ],
      "stateMutability": "view",
      "type": "function"
    },
    {
      "inputs": [
        {
          "internalType": "uint256",
          "name": "",
          "type": "uint256"
        }
      ],
      "name": "joinRequests",
      "outputs": [
        {
          "internalType": "uint256",
          "name": "id",
          "type": "uint256"
        },
        {
          "internalType": "uint256",
          "name": "tribeId",
          "type": "uint256"
        },
        {
          "internalType": "address",
          "name": "applicant",
          "type": "address"
        },
        {
          "internalType": "uint256",
          "name": "initiationArtifactId",
          "type": "uint256"
        },
        {
          "internalType": "bool",
          "name": "approved",
          "type": "bool"
        },
        {
          "internalType": "bool",
          "name": "processed",
          "type": "bool"
        },
        {
          "internalType": "uint256",
          "name": "approvalCount",
          "type": "uint256"
        },
        {
          "internalType": "uint256",
          "name": "rejectionCount",
          "type": "uint256"
        }
      ],
      "stateMutability": "view",
      "type": "function"
    },
    {
      "inputs": [
        {
          "internalType": "uint256",
          "name": "tribeId",
          "type": "uint256"
        },
        {
          "internalType": "string",
          "name": "uri",
          "type": "string"
        }
      ],
      "name": "mintMemberArtifact",
      "outputs": [
        {
          "internalType": "uint256",
          "name": "",
          "type": "uint256"
        }
      ],
      "stateMutability": "nonpayable",
      "type": "function"
    },
    {
      "inputs": [],
      "name": "nextJoinRequestId",
      "outputs": [
        {
          "internalType": "uint256",
          "name": "",
          "type": "uint256"
        }
      ],
      "stateMutability": "view",
      "type": "function"
    },
    {
      "inputs": [],
      "name": "nextTribeId",
      "outputs": [
        {
          "internalType": "uint256",
          "name": "",
          "type": "uint256"
        }
      ],
      "stateMutability": "view",
      "type": "function"
    },
    {
      "inputs": [],
      "name": "owner",
      "outputs": [
        {
          "internalType": "address",
          "name": "",
          "type": "address"
        }
      ],
      "stateMutability": "view",
      "type": "function"
    },
    {
      "inputs": [
        {
          "internalType": "uint256",
          "name": "requestId",
          "type": "uint256"
        }
      ],
      "name": "rejectJoinRequest",
      "outputs": [],
      "stateMutability": "nonpayable",
      "type": "function"
    },
    {
      "inputs": [],
      "name": "renounceOwnership",
      "outputs": [],
      "stateMutability": "nonpayable",
      "type": "function"
    },
    {
      "inputs": [
        {
          "internalType": "uint256",
          "name": "tribeId",
          "type": "uint256"
        },
        {
          "internalType": "string",
          "name": "initiationArtifactUri",
          "type": "string"
        }
      ],
      "name": "requestToJoinTribe",
      "outputs": [
        {
          "internalType": "uint256",
          "name": "",
          "type": "uint256"
        }
      ],
      "stateMutability": "nonpayable",
      "type": "function"
    },
    {
      "inputs": [
        {
          "internalType": "uint256",
          "name": "",
          "type": "uint256"
        },
        {
          "internalType": "address",
          "name": "",
          "type": "address"
        }
      ],
      "name": "requestVotes",
      "outputs": [
        {
          "internalType": "bool",
          "name": "",
          "type": "bool"
        }
      ],
      "stateMutability": "view",
      "type": "function"
    },
    {
      "inputs": [
        {
          "internalType": "uint256",
          "name": "tribeId",
          "type": "uint256"
        },
        {
          "internalType": "address",
          "name": "newLeader",
          "type": "address"
        }
      ],
      "name": "setTribeLeader",
      "outputs": [],
      "stateMutability": "nonpayable",
      "type": "function"
    },
    {
      "inputs": [
        {
          "internalType": "address",
          "name": "newOwner",
          "type": "address"
        }
      ],
      "name": "transferOwnership",
      "outputs": [],
      "stateMutability": "nonpayable",
      "type": "function"
    },
    {
      "inputs": [
        {
          "internalType": "uint256",
          "name": "",
          "type": "uint256"
        }
      ],
      "name": "tribes",
      "outputs": [
        {
          "internalType": "uint256",
          "name": "id",
          "type": "uint256"
        },
        {
          "internalType": "string",
          "name": "name",
          "type": "string"
        },
        {
          "internalType": "address",
          "name": "leader",
          "type": "address"
        },
        {
          "internalType": "bool",
          "name": "requiresApproval",
          "type": "bool"
        },
        {
          "internalType": "bool",
          "name": "active",
          "type": "bool"
        },
        {
          "internalType": "uint256",
          "name": "quorumThreshold",
          "type": "uint256"
        }
      ],
      "stateMutability": "view",
      "type": "function"
    },
    {
      "inputs": [
        {
          "internalType": "uint256",
          "name": "requestId",
          "type": "uint256"
        },
        {
          "internalType": "bool",
          "name": "approved",
          "type": "bool"
        }
      ],
      "name": "voteOnJoinRequest",
      "outputs": [],
      "stateMutability": "nonpayable",
      "type": "function"
    }
  ],
  "bytecode": "0x6080346100de57601f61180738819003918201601f19168301916001600160401b038311848410176100e25780849260409485528339810103126100de57610052602061004b836100f6565b92016100f6565b906001600160a01b039081169081156100c6575f549260018060a01b03199280848616175f558260405195167f8be0079c531659141344cd1fd0a4f28419497f9722a3daafe3b4186f6b6457e05f80a36001805560016005556001600655169060025416176002556116fc908161010b8239f35b604051631e4fbdf760e01b81525f6004820152602490fd5b5f80fd5b634e487b7160e01b5f52604160045260245ffd5b51906001600160a01b03821682036100de5756fe6080604052600480361015610012575f80fd5b5f3560e01c90816305382080146112eb5781630cc0df9314611206578163174ac8c21461116e5781632b979c93146111275781632eee9feb146110ff5781633b7ab74614610ecf57816346bab0e514610d8b578163679bad7414610d4e578163715018a614610cf7578163729b6fa11461095457816373a878f61461093757816379447a93146106175781637d9e10f5146103ca578163816a3422146105cf5781638cc48117146105175781638da5cb5b146104f0578163a464c1e51461046c578163c3652c6c1461042f578163e9f0867114610412578163eb3b4ff9146103ca578163f2fde38b14610340578163f93a28ad14610253578163f96374dd146101d5578163f9a8286f1461014e575063fa46b4921461012f575f80fd5b3461014a57602036600319011261014a5760206040515f8152f35b5f80fd5b3461014a57602036600319011261014a578061010091355f52600b60205260405f209081549160ff60018201549260018060a01b03600284015416906003840154908401549160066005860154950154956040519788526020880152604087015260608601528181161515608086015260081c16151560a084015260c083015260e0820152f35b3461014a57602036600319011261014a578060e091355f52600b60205260405f209060018201549160ff60018060a01b0360028301541692600383015490830154906006600585015494015494604051968752602087015260408601528181161515606086015260081c161515608084015260a083015260c0820152f35b3461014a57604036600319011261014a57803561026e6113aa565b9161027761167b565b815f526020906007825261029c600160ff600260405f20015460a81c161515146115d4565b5f8381526008835260408082206001600160a01b0390961680835295845290205460ff1661030b5750815f526008815260405f20835f528152600a60405f209160ff199260018482541617905552600160405f20918254161790555f5f805160206116a78339815191528180a4005b6064916040519162461bcd60e51b8352820152601060248201526f20b63932b0b23c90309036b2b6b132b960811b6044820152fd5b3461014a57602036600319011261014a576103596113c0565b61036161167b565b6001600160a01b039081169182156103b357505f54826bffffffffffffffffffffffff60a01b8216175f55167f8be0079c531659141344cd1fd0a4f28419497f9722a3daafe3b4186f6b6457e05f80a3005b6024905f60405191631e4fbdf760e01b8352820152fd5b3461014a57604036600319011261014a576103e36113aa565b90355f52600860205260405f209060018060a01b03165f52602052602060ff60405f2054166040519015158152f35b3461014a575f36600319011261014a576020600654604051908152f35b3461014a57602036600319011261014a576001600160a01b036104506113c0565b165f526009602052602060ff60405f2054166040519015158152f35b3461014a57602036600319011261014a57355f52600760205260405f208054610497600183016114a6565b916003600282015491015460ff6104c0604051958695865260c0602087015260c086019061136c565b9260018060a01b0381166040860152818160a01c161515606086015260a81c161515608084015260a08301520390f35b3461014a575f36600319011261014a575f546040516001600160a01b039091168152602090f35b3461014a57602036600319011261014a57803590610533611658565b815f52600b60205260028060405f209283019283549361055960ff8660081c1615611548565b610100600183015495865f52600760205260405f2060018060a01b03968791015416331480156105c3575b61058d90611588565b61ffff1916179055015416917fd3825ea8bfe6e331a9a3e6dfacead4a11a326d8f239419106d88cbc2e534f1545f80a460018055005b505f5486163314610584565b3461014a57604036600319011261014a576105e86113aa565b90355f52600360205260405f209060018060a01b03165f52602052602060ff60405f2054166040519015158152f35b3461014a57608036600319011261014a5767ffffffffffffffff90803582811161014a5761064890369083016113d6565b90926106526113aa565b9160443592831515840361014a5761066861167b565b60055494600186018087116109245760055560405160c0810181811086821117610911576040528681528484116108fe57604051916106b1601f8601601f191660200184611470565b84835236858a011161014a57848960208501375f602086850101526020820192835260018060a01b038416604083015286151560608301526001608083015260643560a0830152875f52600760205260405f209282518455519081519687116108eb57506107226001840154611438565b601f81116108a7575b509160209893918895938a90601f89116001146108135791887fd2bdf113cf9696a3a338d1ab7a67c6d35ae3c8109b8a9375d95d5429db11bdd7989960a0936003955f92610808575b50505f1982861b1c1916600191821b17908501555b60028401600180841b0360408301511681549060ff851b60608501511515861b169060ff60a81b6080860151151560a81b169269ffffffffffffffffffff60b01b16171717905501519101556107ec604051938493604085526040850191611613565b951515828901526001600160a01b0316940390a3604051908152f35b015190508e80610774565b9790600184015f528b5f20985f5b601f198416811061088d5750827fd2bdf113cf9696a3a338d1ab7a67c6d35ae3c8109b8a9375d95d5429db11bdd7999a6003959360019360a096601f19811610610876575b505050811b016001850155610789565b01515f1983881b60f8161c191690558e8080610866565b828201518b556001909a01998c9950918d01918d01610821565b600184015f5260205f20601f880160051c8101602089106108e4575b601f830160051c820181106108d957505061072b565b5f81556001016108c3565b50806108c3565b604190634e487b7160e01b5f525260245ffd5b604182634e487b7160e01b5f525260245ffd5b604183634e487b7160e01b5f525260245ffd5b601182634e487b7160e01b5f525260245ffd5b3461014a575f36600319011261014a576020600554604051908152f35b3461014a57604036600319011261014a578035602435918215159081840361014a5761097e611658565b825f52602091600b835260405f20918083016109a160ff825460081c1615611548565b6001968785019384545f526007875260405f20916008885260405f20335f52885260ff60405f2054168015610ce1575b8015610cce575b15610c7f57885f526003885260405f20335f52885260ff60405f205416610c4b57885f526003885260405f20335f52885260405f209460ff19958b87825416179055895f5280895260405f20335f528952610a428260405f209060ff801983541691151516179055565b8115610c3357600588018054918c8301809311610c205750555b600587019182546006890154906040519283528a8301526040820152897f77a255f45c79d26605c257d8dfc37f9a619f53963ddbed1e95aa0aab1c801cee60603393a360038301805490939015610b335750505490541115610ac3575b5050505050508055005b61010161ffff1982541617905581545f5260088452600a600260405f2094019460018060a01b0394858754165f52815260405f208884825416179055848654165f52528560405f209182541617905554915416915f805160206116a78339815191525f80a4818080808080610ab9565b6002015496976001600160a01b03979094919350909150861633148015610c14575b610b66575b50505050505050508055005b805482151560ff1661ffff199091161761010017905515610be057600a9083545f5260088152600260405f20960195858754165f52815260405f208884825416179055848654165f52528560405f209182541617905554915416915f805160206116a78339815191525f80a45b8180808080808080610b5a565b50506002905492015416917fd3825ea8bfe6e331a9a3e6dfacead4a11a326d8f239419106d88cbc2e534f1545f80a4610bd3565b50855f54163314610b55565b601190634e487b7160e01b5f525260245ffd5b600688018054918c8301809311610c20575055610a5c565b60405162461bcd60e51b8152808601899052600d60248201526c105b1c9958591e481d9bdd1959609a1b6044820152606490fd5b60405162461bcd60e51b8152808601899052602260248201527f4e6f74207472696265206d656d6265722c206c65616465722c206f72206f776e60448201526132b960f11b6064820152608490fd5b505f546001600160a01b031633146109d8565b5060028301546001600160a01b031633146109d1565b3461014a575f36600319011261014a57610d0f61167b565b5f80546001600160a01b0319811682556001600160a01b03167f8be0079c531659141344cd1fd0a4f28419497f9722a3daafe3b4186f6b6457e08280a3005b3461014a57602036600319011261014a576001600160a01b03610d6f6113c0565b165f52600a602052602060ff60405f2054166040519015158152f35b3461014a57610d9936611404565b9092610da3611658565b825f5260209360078552610dc8600160ff600260405f20015460a81c161515146115d4565b835f526008855260405f20335f52855260ff60405f20541615610e9857600254604051632ce9226b60e21b815293869385936001600160a01b039093169284925f928492610e1a929133908501611633565b03925af1908115610e8d575f91610e60575b50806040519233907ff8d35df495df1b51d41063d1df5b619a7440bc0f6ab27d92c6b6b2d474ceeb465f80a4600180558152f35b90508281813d8311610e86575b610e778183611470565b8101031261014a575183610e2c565b503d610e6d565b6040513d5f823e3d90fd5b60405162461bcd60e51b8152808301869052601060248201526f2737ba103a3934b1329036b2b6b132b960811b6044820152606490fd5b3461014a57610edd36611404565b909291610ee8611658565b805f5260209360078552600192610f0f8460ff600260405f20015460a81c161515146115d4565b335f526009865260ff60405f2054166110c757600254604051632ce9226b60e21b815293926001600160a01b0392889286929085169183915f918391610f599190338e8501611633565b03925af1928315610e8d575f93611098575b50335f526009865260405f208460ff19825416179055600654948486018087116109245760065560405191610100830183811067ffffffffffffffff821117610911578784611042600695898d5f9788976040528686528d8287018d8152600b604089019433865260608a0196875260808a019a8c8c5260e060a08c019b8e8d5260c081019e8f52019d8e525f525260405f209c518d5551908c015560028b019151166bffffffffffffffffffffffff60a01b825416179055516003890155870192511515839060ff801983541691151516179055565b51151561ff0082549160081b169061ff00191617905551600584015551910155604051918252837f2c770e9fa353d10aa419997c164bc73d33ade27c3d79c621d3bf1fca860fdeab863394a48055604051908152f35b9092508581813d83116110c0575b6110b08183611470565b8101031261014a57519186610f6b565b503d6110a6565b60405162461bcd60e51b81528086018790526011602482015270105b1c9958591e481a5b9a5d1a585d1959607a1b6044820152606490fd5b3461014a575f36600319011261014a576002546040516001600160a01b039091168152602090f35b3461014a57604036600319011261014a576111406113aa565b9080355f5260205260405f209060018060a01b03165f52602052602060ff60405f2054166040519015158152f35b3461014a57604036600319011261014a57356111886113aa565b9061119161167b565b805f5260076020526111b4600160ff600260405f20015460a81c161515146115d4565b5f81815260076020526040812060020180546001600160a01b0319166001600160a01b0390941693841790557f503e0cf396050184c2f79195ce1c1cf6e47ab02e499cfd08f244d3e3ca1284d39080a3005b3461014a576020908160031936011261014a576002813592611226611658565b835f52600b815260405f2092830190815461124760ff8260081c1615611548565b6001850192610101845492835f526007855260405f2060018060a01b03978891015416331480156112df575b61127c90611588565b61ffff19161790555f5260088152600260405f20940193838554165f528152600a60405f209160ff1992600184825416179055848654165f5252600160405f209182541617905554915416915f805160206116a78339815191525f80a460018055005b505f5487163314611273565b3461014a57602036600319011261014a57355f52600760205261133860405f2060028101546113216001600384015493016114a6565b9160ff60405194859460a0865260a086019061136c565b6001600160a01b038416602086015260a084901c82161515604086015260a89390931c161515606084015260808301520390f35b91908251928382525f5b848110611396575050825f602080949584010152601f8019910116010190565b602081830181015184830182015201611376565b602435906001600160a01b038216820361014a57565b600435906001600160a01b038216820361014a57565b9181601f8401121561014a5782359167ffffffffffffffff831161014a576020838186019501011161014a57565b90604060031983011261014a57600435916024359067ffffffffffffffff821161014a57611434916004016113d6565b9091565b90600182811c92168015611466575b602083101461145257565b634e487b7160e01b5f52602260045260245ffd5b91607f1691611447565b90601f8019910116810190811067ffffffffffffffff82111761149257604052565b634e487b7160e01b5f52604160045260245ffd5b9060405191825f82546114b881611438565b908184526020946001916001811690815f1461152657506001146114e8575b5050506114e692500383611470565b565b5f90815285812095935091905b81831061150e5750506114e693508201015f80806114d7565b855488840185015294850194879450918301916114f5565b925050506114e694925060ff191682840152151560051b8201015f80806114d7565b1561154f57565b60405162461bcd60e51b8152602060048201526011602482015270105b1c9958591e481c1c9bd8d95cdcd959607a1b6044820152606490fd5b1561158f57565b60405162461bcd60e51b815260206004820152601960248201527f4e6f74207472696265206c6561646572206f72206f776e6572000000000000006044820152606490fd5b156115db57565b60405162461bcd60e51b815260206004820152601060248201526f5472696265206e6f742061637469766560801b6044820152606490fd5b908060209392818452848401375f828201840152601f01601f1916010190565b6001600160a01b03909116815260406020820181905261165593910191611613565b90565b600260015414611669576002600155565b604051633ee5aeb560e01b8152600490fd5b5f546001600160a01b0316330361168e57565b60405163118cdaa760e01b8152336004820152602490fdfe0d76f8c035663139fee6b97966464dbdb5bc2922b09054278dc109b118aa9edda2646970667358221220f8671da6a62a9bcd70f756783365b30b76c821c55d16c16c91a7db19b230edab64736f6c63430008180033",
  "linkReferences": {},
  "deployedLinkReferences": {},
  "immutableReferences": {},
  "inputSourceName": "project/contracts/TribeManager.sol",
  "buildInfoId": "solc-0_8_24-543e1433b7228e1239fed98c289ac4d87bb579fd"
}